:020000040800F2
:10000000C00700205D020008913C0008933C0008F6
:10001000953C0008973C0008993C0008000000004F
:100020000000000000000000000000009B3C0008F1
:100030009D3C0008000000009F3C0008A33C000815
:1000400077020008770200087702000877020008AC
:10005000770200087702000877020008770200089C
:100060007702000877020008770200089736000838
:100070009D360008A3360008A9360008AF360008F0
:10008000B5360008BB360008770200087702000882
:10009000770200087702000877020008770200085C
:1000A000770200087702000877020008770200084C
:1000B000770200087702000877020008770200083C
:1000C000770200087702000877020008770200082C
:1000D000770200087702000877020008770200081C
:1000E000770200087702000877020008770200080C
:1000F000770200087702000877020008C13600087E
:1001000077020008770200087702000877020008EB
:1001100077020008770200087702000877020008DB
:10012000C7360008CB360008D1360008D73600089D
:10013000DD36000877020008770200087702000821
:1001400077020008770200087702000877020008AB
:10015000E3360008E9360008EF36000877020008A9
:10016000770200087702000877020008770200088B
:10017000770200087702000877020008770200087B
:10018000770200087702000877020008770200086B
:10019000770200087702000877020008770200085B
:1001A00077020008770200087702000800F002F8E2
:1001B00000F045F80AA090E8000C82448344AAF1BC
:1001C0000107DA4501D100F03AF8AFF2090EBAE8BA
:1001D0000F0013F0010F18BFFB1A43F0010318477B
:1001E000F055000010560000103A24BF78C878C1BE
:1001F000FAD8520724BF30C830C144BF04680C602D
:10020000704700000023002400250026103A28BF74
:1002100078C1FBD8520728BF30C148BF0B60704778
:10022000642903F0AF86002070471FB504F05CF826
:100230009DE8030003F002FF1FBD10B510BD03F0E1
:10024000D1FF1146FFF7F1FF03F096FC03F0EFFF3B
:1002500003B4FFF7F2FF03BC04F020F8094880471D
:1002600009480047FEE7FEE7FEE7FEE7FEE7FEE798
:10027000FEE7FEE7FEE7FEE704480549054A064BB0
:10028000704700006B3D0008AD010008C001002070
:10029000C0070020C0030020C003002028490843F5
:1002A00028490860704730B50F23C27801780125CE
:1002B000FAB1244A126801F1E02102F4E062C2F5C9
:1002C000E062C2F30722C2F10404D3404278A240A4
:1002D00084781C401443220181F80024007800F047
:1002E0001F018D404009800000F1E020C0F800515E
:1002F00030BD01F01F0085404809800000F1E0207A
:10030000C0F8805130BD104A114001430D48001F14
:10031000016070470B4A121D0029116801D001438A
:1003200000E08143116070474FF0E0210428086924
:1003300003D020F004000861704740F00400FAE7A1
:100340000000FA050CED00E080FFFF1FF94801688E
:1003500041F001010160F74A002108321160026892
:10036000F54B1A400260031DF44A1A60F14BF44A3F
:1003700084331A60F14A103A1B1D1A60026822F495
:1003800080220260EB480C300160181D016070474C
:10039000E8490022891C0A70087070470246002054
:1003A000510901290CD002290CD0E24974310968A5
:1003B00002F01F02012393400B4200D0012070473E
:1003C000DC49F4E7DB497031F1E718B500204FF460
:1003D000A04400903120FFF7E1FF0099491C0091F3
:1003E000A14201D00028F5D03120FFF7D7FF002827
:1003F00000D0012018BDCF4A116821F0F80141EA70
:10040000C00010607047CF4908607047C94900229A
:1004100070310A700A70012802D0042801D1052029
:1004200008707047C8490860704741EA82115A084D
:1004300010B5C64B029C03EB02421143014341EA53
:100440000460BC49091D086010BDBE4908667047BC
:10045000800140EA0160B74940EA027084310860D7
:100460007047B84988667047800140EA0160B14929
:1004700040EA0270883108607047B24908677047E7
:10048000B049C8647047AB4B08331A68084322F080
:10049000EC62104318607047A64B08331A68084393
:1004A00022F07842104318607047A24A083211685F
:1004B00021F003010143116070479E480830006835
:1004C00000F00C0070479B4A0832116821F0F001DF
:1004D000014311607047974A0832116821F4E051D6
:1004E000014311607047934A0832116821F460415A
:1004F00041EAC0001060704770B58E4B0833196830
:10050000934C11F00C0104D0924E042903D0082919
:1005100003D004601BE0066019E0864A121D1168D2
:10052000C1F38055116801F03F0115B1B6FBF1F13F
:1005300001E0B4FBF1F114681268C4F3881461435C
:10054000C2F30142521C5200B1FBF2F10160196882
:100550000F2202EA1111804A545C0168E1404160B7
:100560001C68072505EA9424145D21FA04F48460CC
:100570001B6805EA5333D25CD140C16070BDC0F343
:100580000121032908D16B4B08331968734A21F400
:10059000F81102400A431A60664970310A68C0F3D4
:1005A0000B0002430A60704767494439086070478E
:1005B00065494039086070476249C1F85C0170477D
:1005C0005C4A8C32116821F440110143116070477C
:1005D000584A8C32116821F4400101431160704780
:1005E000544A8C321168401E21F01F0101431160F2
:1005F0007047504A8C3211686FF0FF0321F4F851B4
:1006000003EB00200843106070474A4A8C3211689F
:1006100021F440310143116070475149C1F8E001B4
:100620007047444A30320029116801D0014300E08C
:100630008143116070473F4A34320029116801D06C
:10064000014300E08143116070473A4A3832002983
:10065000116801D0014300E0814311607047354AC1
:1006600040320029116801D0014300E0814311604C
:100670007047304A44320029116801D0014300E03C
:100680008143116070472B4A10320029116801D054
:10069000014300E0814311607047264A143200296B
:1006A000116801D0014300E0814311607047214A85
:1006B00018320029116801D0014300E08143116024
:1006C00070471C4A20320029116801D0014300E024
:1006D000814311607047174A24320029116801D004
:1006E000014300E0814311607047124A50320029F3
:1006F000116801D0014300E08143116070470D4A49
:1007000054320029116801D0014300E08143116097
:100710007047084A58320029116801D0014300E0AF
:10072000814311607047034A60320029116819D073
:10073000014318E000380240FFFFF6EA10300024C1
:100740000030002000004742800E47420000FFFFBB
:100750000024F40040787D0100000020FFFCFF0F22
:1007600000104742814311607047194A00291168FF
:1007700001D0014300E081431160704714490C31FE
:100780000128086803D020F008000860704740F096
:100790000800FAE70E4A573A0029117801D00143C0
:1007A00000E081431170704709481030016841F042
:1007B0008071016070470146054A0020583A12686E
:1007C0000A4200D00120704701495639087070472D
:1007D00064380240774910B5884206D101210846A5
:1007E000FFF751FF002101205BE07349884206D1E9
:1007F00001210220FFF747FF0021022051E06F494D
:10080000884206D101210420FFF73DFF002104208A
:1008100047E06B49884206D101210820FFF733FFEA
:10082000002108203DE06749884206D101211020BF
:10083000FFF729FF0021102033E06349884206D1E9
:1008400001212020FFF71FFF0021202029E05F4920
:10085000884206D101214020FFF715FF00214020EA
:100860001FE05B49884206D101218020FFF70BFF82
:100870000021802015E05749884202D101218415CA
:100880000AE05549884202D10121441504E0534948
:1008900088420AD1012104152046FFF7F4FE002109
:1008A0002046BDE81040FFF7EEBE10BDF0B50022B7
:1008B00001274FF0030C0B6807FA02F52B40AB42FF
:1008C0002CD1066853000CFA03F4A64306600E7997
:1008D000D0F800E09E4046EA0E0606600E79012E32
:1008E00001D0022E12D18668A64386604E79D0F8D8
:1008F00008E09E4046EA0E0686604668AE434660C3
:1009000045688E799640B6B235434560C568A543C3
:10091000C560CC799C40C3681C43C460521C102A3B
:10092000C9D3F0BD4FF6FF71016000210171417123
:100930008171C171704708B541F480320092C26183
:10094000C1610099C161C169C069009008BD0246DA
:10095000002012690A4200D001207047006980B26D
:1009600070470246002052690A4200D001207047B9
:10097000406980B2704701837047418370470AB174
:1009800001837047418370474161704742694A4023
:10099000426170474B07DB0E9A40C90810B500EB67
:1009A0008100016A0F249C40A1430162016A114346
:1009B000016210BD00000240000402400008024035
:1009C000000C0240001002400014024000180240D7
:1009D000001C024000200240002402400028024087
:1009E000D24910B5884202D101214C050AE0D04914
:1009F000884202D101218C0504E0CE4988420AD107
:100A00000121CC052046FFF75CFE2046BDE81040E2
:100A10000021FFF756BE10BD7FB5044680880D4605
:100A200020F03F066846FFF767FDC3490298B0FB18
:100A3000F1F189B20E43A680228822F001022280C1
:100A4000BE4B2A689A421BD85200B0FBF2F080B22B
:100A5000042800D20420491C2184A083208840F06F
:100A60000100208020884FF6F5310840A9886A8966
:100A7000114301432180A8892989084320817FBD32
:100A8000EB88A3F53F46FF3E0BD002EBC20303EB1E
:100A90000212B0FBF2F080B240F48040020506D0B2
:100AA00007E002EB4202B0FBF2F080B2F6E740F062
:100AB00001004FF4967251434FF47A72B1FBF2F198
:100AC00040F40040C7E741F2883101600021818095
:100AD0004BF6FF72C280018141814FF480418181D8
:100AE00070470029018802D041F0010101E021F0A6
:100AF0000101018070470029818C02D021F0100192
:100B000001E041F0100181847047828C01F00F01F7
:100B100022F00F021143818470470029018802D01E
:100B200041F4807101E021F4807101807047002957
:100B3000018802D041F4007101E021F400710180CC
:100B4000704712B141F0010101E001F0FE010182A4
:100B500070470029018802D041F4806101E021F44E
:100B6000806101807047828901F0FE0122F0FE025F
:100B70001143818170470029818902D041F0010130
:100B800001E021F00101818170470029018802D034
:100B900041F0400101E021F040010180704700294F
:100BA000018802D041F4004101E0C1F30E0101804F
:100BB00070470029018803D021F08001018070472F
:100BC00041F08001FAE7B1F5804F818B02D021F42A
:100BD000804101E041F4804181837047B1F5006FAD
:100BE000018803D021F400610180704741F4006165
:100BF000FAE7B1F5005F018803D021F400510180CC
:100C0000704741F40051FAE70029018802D041F011
:100C1000100101E021F0100101807047018270474E
:100C2000008AC0B270470029018802D041F4805187
:100C300001E021F4805101807047B1F5006F018817
:100C400003D021F400610180704741F40061FAE7AC
:100C50000029018802D041F0200101E021F02001AB
:100C600001807047008B000A70470029818802D0FC
:100C700041F4006101E021F40061818070470029A6
:100C8000818802D041F4805101E021F480518180BB
:100C9000704708B508440090008808BD002A828883
:100CA00001D00A4300E08A43828070470346002057
:100CB0009A8A1B8B42EA034222F07F42914300D181
:100CC00001207047818A008B41EA004121F07F407A
:100CD00070470CB50246002000920A0F21F07F41B8
:100CE000019202D0009A143202E0009A090C1832E4
:100CF000009212680A4200D001200CBDC9438182D3
:100D0000704710B5034600209A884FF4E06404EA67
:100D100011449B8A224021F07F410B4202D0002ADD
:100D200000D0012010BDC9438182704700540040AB
:100D300000580040005C004040420F00A0860100C7
:100D4000C14910B5884202D10121841424E0BF4971
:100D5000884202D10121041404E0BD4988420AD12D
:100D60000121C4132046FFF7ACFC2046BDE810402B
:100D70000021FFF7A6BCB749884202D101214414E3
:100D80000AE0B549884202D101210C0504E0B349CB
:100D900088420AD101214C052046FFF79CFC2046E1
:100DA000BDE810400021FFF796BC10BD30B50288A9
:100DB0004C8802F441530A88CD8822438C882C4306
:100DC00022430C8922434C8922438C892243CC89BB
:100DD00022431A430280828B22F400628283098AB2
:100DE000018230BDF0B502220023858B01244FF231
:100DF0004006354085830284868B8D68022D3DD068
:100E00008A8802B10224964A13681B0203D513682C
:100E100023F400031360924A7C3213681268C3F310
:100E200088138F4FC2F302723F1F3D683F6805F081
:100E30003F057F0201D58B4F00E08B4FB7FBF5F5E7
:100E40005D43B5FBF2F2CB88B3F5007F2BD0630195
:100E5000B2FBF3F202EB82028B685200B2FBF3F2B8
:100E6000521D92B20A23B2FBF3F202F00103D21A2E
:100E70004FF6FF74C2F34F0204EA0323941EFE2CC4
:100E800001D302220023CC881A43144304840A8825
:100E90004B881A438B8889890B431A43324342F4A7
:100EA00000618183F0BD120AD4E7002101804180F6
:100EB0008180C180018141818181C18107210182BD
:100EC00070470021018041808180C18002228260C0
:100ED000818170470029018802D041F0400101E082
:100EE00021F04001018070470029818B02D041F43C
:100EF000806101E021F4806181837047028822F4DF
:100F00000062028002880A4302807047B1F5804F78
:100F1000018803D021F480410180704741F4804171
:100F2000FAE7A1F57E420188FF3A02D041F48071D0
:100F300001E021F48071018070470029818802D08E
:100F400041F0040101E021F0040181807047002993
:100F5000818802D041F0100101E021F01001818070
:100F6000704730B5828B00234FF2400422408283C9
:100F700002220284848B0A884FF48075B2F5007FC8
:100F800000D002B92B464A888D8889892A431943A3
:100F90000A43224342F40061818330BD8089704757
:100FA000818170470029018802D041F4005101E09D
:100FB00021F4005101807047018841F48051018083
:100FC0007047012901D0008B7047808A7047008AE2
:100FD0007047002A828801D00A4300E08A43828059
:100FE0007047090901238B40002A828899B201D0F9
:100FF0000A4300E08A43828070470246002012893B
:101000000A4200D001207047C9430181704730B5C2
:1010100001F00F030125024605FA03F40020A3B2F4
:10102000090905FA01F49188A4B2128921401A42F3
:1010300002D0002900D0012030BD01F00F020121B3
:101040009140C943018170470030014000380040A1
:10105000003C004000340140005001400054014079
:101060000838024040787D010024F4002DE9F04367
:10107000016821F00101016000210160416081608F
:10108000C160016121214161B849B84A3D2510394B
:10109000904202D18D60BDE8F083B44A4FF474668B
:1010A0001832904201D18E60F5E7B04A4FF47417C0
:1010B0003032904201D18F60EDE7AC4A4FF0746C52
:1010C0004832904202D1C1F808C0E4E7A74BA84AD1
:1010D0006033984201D1CA60DDE7A44CA54B783457
:1010E000A04201D1CB60D6E7DFF88082A24C08F1A4
:1010F0009008404501D1CC60CDE7DFF870824FF019
:101100003D5908F1A808404502D1C1F80C90C2E74A
:101110009A49DFF868820839404501D10D60BAE785
:10112000964D1835A84201D10E60B4E7934D303585
:10113000A84201D10F60AEE7904D4835A84202D1D8
:10114000C1F800C0A7E78D4D8C496035091FA84242
:1011500001D10A609FE7894A7832904201D10B6041
:1011600099E7864A9032904201D10C6093E7834A16
:10117000A83290428FD1C1F800908CE730B5036857
:101180007F4ACC6813400A682243D1E905452C43C5
:101190002243CC6922430C6A22434C6A22438C6A64
:1011A00022434C6B22438C6B22431A4302604269F8
:1011B00022F00703D1E90B2422431A4342610A6952
:1011C00042604A6882608968C16030BD0021016068
:1011D00041608160C160016141618161C161016201
:1011E00041628162C162016341638163704700298A
:1011F000016802D041F0010101E021F0010101602C
:1012000070470029016802D041F4004101E021F457
:101210000041016070470029016802D041F02001BF
:1012200001E021F020010160704741607047406893
:1012300080B27047002A026802D042F4002201E026
:1012400022F400220260016170470029016802D087
:1012500041F4802101E021F48021016070470AB14E
:1012600001617047C16070470146002009680903A9
:1012700000D501207047014600200968C90700D049
:1012800001207047406900F03800704702463B4B30
:1012900000209A4202D2354A103A01E0374A103A09
:1012A0008B0001D5526800E01268364B1A400A42A2
:1012B00000D001207047314A904202D22B481038AA
:1012C00001E02E4810382F4A8B0001EA020101D5B7
:1012D000C1607047816070470B0607D5436912B142
:1012E00043F0800301E023F080034361802908D0AC
:1012F000002A026801F01E0101D00A4300E08A437F
:101300000260704730B51D4A0024904202D2174A4D
:10131000103A01E0194A103A1B4B194205D01E231E
:1013200003EAD12503682B4002E0406900F0800306
:10133000880001D5506800E01068124A1040084249
:1013400001D003B10124204630BD0C4A904202D2A4
:101350000648103801E0094810380A4A8B0001EAB3
:10136000020101D5C1607047816070471060024082
:101370003D000020400F002000003D20106402408E
:101380003F801CF07D0F7D0F3C0F3C0F10B50121FD
:101390000C022046FFF79FF92046BDE810400021CF
:1013A000FFF799B930B54268C84B0C791A400B6801
:1013B00042EA0422134343608268C54B4D791A40C8
:1013C000D1E9034323438C6844EA45042343134390
:1013D0008360C26A097D22F47002491EC9B242EAE2
:1013E0000151C16230BD0021016001714171816014
:1013F000C1600161012101757047B64B10B5D3F88A
:101400000423B5490A40D0E900142143D0E9024041
:10141000044321431143C3F8041310BD00210160AC
:1014200041608160C16070470029816802D041F04D
:10143000010101E021F00101816070474268A74B82
:101440001A400A43426070474162826270474268B4
:1014500022F01F020A43426070479E490028D1F8DB
:10146000040302D040F4000001E020F40000C1F8C1
:101470000403704797490028D1F8040302D040F4D0
:10148000800001E020F48000C1F80403704770B5CB
:10149000072609290AD9C568A1F10A0404EB440406
:1014A000A640B543A3401D43C56007E0056901EBB5
:1014B0004104A640B543A3401D4305611F23072AED
:1014C00009D2446B521E02EB820293409C4391402E
:1014D0000C43446370BD0D2A09D2046BD21F02EB8A
:1014E000820293409C4391400C43046370BDC46AE4
:1014F0000D3A02EB820293409C4391400C43C4623C
:1015000070BD816841F080418160704701460020D4
:101510008968490000D5012070470029816802D000
:1015200041F4806101E021F480618160704700290D
:10153000816802D041F0020101E021F002018160E6
:1015400070474268491E22F4604242EA41314160DC
:1015500070470029416802D041F4006101E021F4A4
:10156000006141607047C06C80B270475948D0F844
:10157000080370470029816802D041F4807101E0BE
:1015800021F48071816070470029816802D041F4A4
:10159000007101E021F40071816070474D4900281D
:1015A000D1F8040302D040F4005001E020F40050D0
:1015B000C1F80403704770B5072609290AD9C56820
:1015C000A1F10A0404EB4404A640B543A3401D4323
:1015D000C56007E0056901EB4104A640B543A3409F
:1015E0001D430561836BC3F30154121B921C02EB74
:1015F00082021F249440A34391400B43836370BD38
:10160000826B491E22F4401242EA01518163704705
:1016100008B508440090026008BD826822F4702278
:101620000A4382607047826822F440120A43826053
:101630007047816841F48001816070470146002055
:101640008968490200D5012070470029416802D00D
:1016500041F4806101E021F480614160704700291C
:10166000416802D041F4805101E021F48051416091
:10167000704708B5084428300090006880B208BD63
:1016800001238B4041680AB1194300E0994341604E
:1016900070470246002012680A4200D001207047BD
:1016A000C9430160704730B50246002053680C0AF8
:1016B00001258D4011682B40214202D0002B00D023
:1016C000012030BD6FEA112101607047FFFEFFFC71
:1016D000FDF7FFC000200140E030FCFFFFFD3FFFB1
:1016E00070B55A484168491C4160816811B18168F0
:1016F000491E8160AFF300800024554E18E006EBD0
:101700008405686890B1017B81B1826872B1521E14
:10171000826069680AD14869096988476868016810
:1017200081606868416809B900210173641CE4B2F2
:101730003078A042E3D870BD464801684FF47A7013
:10174000B1FBF0F0401EB0F1807F12D24FF0E022EA
:101750005061414BF02083F8140D00209061072068
:1017600010613E48B1FBF0F13848C16001210170C1
:101770007047FEE735480078002805D04FF0E0209C
:10178000016941F00201016170474FF0E0200169F9
:1017900021F00201016170472DE9F0472C4C05460C
:1017A000DDF8209020781E4617468846052802D38B
:1017B0000020BDE8F087182002F046FB0028F8D092
:1017C0000560C0E901850773C0E90469217804EB6D
:1017D000810148602178491C2170EAE71C4B30B434
:1017E00000211A7806E003EB81046468844203D088
:1017F000491CC9B28A42F6D88A4218D003EB81004C
:101800004068EFF3108472B605E003EB8102491CD7
:101810009568C9B255601A78521E8A42F5DC19786B
:10182000491E197004B962B630BC02F03CBB30BC32
:1018300070470021017370470121017370470168EF
:101840008160704741607047016070471000002060
:10185000F4000020E00000200FE000E0C0C62D00F2
:1018600002468221C34800F0F2BD1CB5FFF764FFB9
:10187000C04CC14A0021204600F0A3FC02230322F1
:101880008221204600F05BFE052000F05CF9002379
:1018900003228221204600F052FE022000F053F97C
:1018A0000221009101AB00228221204600F004FEBB
:1018B000BDF8040041BAA1F50062113A01D003203D
:1018C0001CBD022303228221204600F038FE0520A1
:1018D00000F039F9002303228221204600F02FFE78
:1018E000022000F030F90420FFF7BAFF20F00103D6
:1018F00004228221204600F022FE0420FFF7B0FFE0
:1019000020F0020304228221204600F018FE492321
:1019100020228221204600F012FE022000F013F95E
:10192000012321228221204600F009FE1720FFF723
:1019300097FF40F01E0317228221204600F0FFFD92
:101940009A2341228221204600F0F9FD01234A22F8
:101950008221204600F0F3FD01234B228221204604
:1019600000F0EDFD00234B228221204600F0E7FD30
:10197000012356228221204600F0E1FD0123582256
:101980008221204600F0DBFD0323402282212046F5
:1019900000F0D5FDFF230B228221204600F0CFFD71
:1019A000022000F0D0F802201CBD70B504464F2084
:1019B000FFF756FF60F30F255020FFF751FF60F34C
:1019C0000705A5F5B47528B20B2190FBF1F001B223
:1019D000002901DC002104E0B1F5A07F01DB40F229
:1019E0003F11A14201DD081B00E0601A00B204288B
:1019F00001DD88B270BD204670BD70B504464D2033
:101A0000FFF72EFF60F30F254E20FFF729FF60F34D
:101A1000070529B240F6B830814202DCA1F63C71DC
:101A200001E0A1F6D861484200B20F2190FBF1F02D
:101A300001B2EF2901DDEF2102E0002900DA0021E7
:101A4000A14201DD081B00E0601A00B2042801DD9C
:101A500088B270BD204670BD70B5044600796071D3
:101A60004020FFF7FDFE434E00064FF001050DD468
:101A7000257101234B228221304600F060FD0023B6
:101A80004B228221304600F05AFD5AE0A07930B155
:101A9000012811D0022818D0032821D02AE020885C
:101AA000FFF7ABFFC0F1EF0020806088FFF77DFFFC
:101AB000A0F23F10404206E02088FFF79EFF208002
:101AC0006088FFF772FF608014E06088FFF795FF81
:101AD00060802088FFF769FFA0F23F10404208E0D5
:101AE0002088FFF78AFFC0F1EF0060802088FFF7B1
:101AF0005CFF208001234B228221304600F01FFD35
:101B000000234B228221304600F019FDA0790021EC
:101B10004FF49F7260B101280AD02088401E904285
:101B20000ED2608860B1EF280AD22171002070BD0A
:101B30002088401EEE2803D2608808B19042F4D974
:101B40002571012070BD0D4908B50A680092EFF3B8
:101B5000058242B14FF0E021002809D00A69D20382
:101B6000FAD5401EF8E70A68009BD21A8242FAD3DF
:101B700008BD0000005C0040A086010014000020A9
:101B800070471CB530B1032803D10521FE48FFF78B
:101B9000F7FF1CBD05210320CDE9000100231A46F3
:101BA0004FF4E041F94801F052FA1CBD7CB505251F
:101BB000F74E032440B101280CD0032803D105219E
:101BC000F448FFF7DDFF7CBD00231A464FF4607137
:101BD00030460CE000231A464FF400613046CDE950
:101BE000004501F034FA0023EB481A46C021CDE944
:101BF000004501F02CFA7CBD1CB50522E74C032101
:101C000040B101280CD0032803D10521E448FFF797
:101C1000B7FF1CBDCDE9001200231A46642105E080
:101C2000CDE9001200231A464FF4E041204601F0AE
:101C30000EFA1CBD1CB50622032140B101280DD0AF
:101C4000032803D10621D748FFF79AFF1CBDCDE931
:101C5000001200231A463821D34806E0CDE90012CD
:101C600000231A464FF4E051D04801F0F0F91CBDB2
:101C70007CB50525CC4E032450B1012816D002288E
:101C80001AD0032803D10521C948FFF779FF7CBD8D
:101C900000231A464FF480613046CDE9004501F03B
:101CA000D6F900231A460C21C04809E000231A4641
:101CB0004FF46041304603E00023BE481A460D2130
:101CC000CDE9004501F0C3F97CBD1CB50522032117
:101CD00040B101280DD0032803D10521B648FFF7F4
:101CE0004FFF1CBDCDE9001200231A46E021B34886
:101CF00005E0CDE9001200231A463821AA4801F078
:101D0000A6F91CBD2DE9FF4F85B00446DDE912BAE6
:101D1000994616466846FFF7C8F8A748A84F002519
:101D2000844208D1386840F4805038600698FFF744
:101D3000CCFFADF804509E48DFF884828442A8F1BD
:101D400004080AD1D8F8001041F48041C8F8001006
:101D50000698FFF78DFFADF80450924884420AD1EF
:101D6000D8F8001041F40041C8F800100698FFF7B9
:101D700061FFADF804508A48844208D1386840F4C5
:101D8000005038600698FFF737FFADF804508148DF
:101D9000844208D1386840F4801038600698FFF714
:101DA00005FFADF804507848844208D1386840F403
:101DB000001038600698FFF7E4FEADF80450ADF867
:101DC0000C90ADF800504FF40070ADF80EA0ADF8D7
:101DD00002B0ADF80A0046B10121012E08D0022060
:101DE000022E08D0032E0BD00EE0ADF8065004E012
:101DF000ADF8065006E0ADF80600ADF8085003E077
:101E0000ADF80600ADF80810208820F040002080D2
:101E100069462046FEF7CAFF208840F04000208037
:101E200009B0BDE8F08F2DE9FC4104466248002569
:101E30000F464FF48276844205D1CDE90065202318
:101E40000022FFF75FFF5A48844206D1CDE90065C2
:101E5000202300223946FFF755FF5248844206D11D
:101E6000CDE90065202300223946FFF74BFF4C489F
:101E7000844206D1CDE90065202300223946FFF7D0
:101E800041FF4448844206D1CDE9006500231A464B
:101E90003946FFF737FF3C48844206D1CDE900655B
:101EA000202300223946FFF72DFFBDE8FC812DE9F4
:101EB000FC41044640480025174688464FF4827688
:101EC000844204D1CDE900652023FFF71BFF384889
:101ED000844206D1CDE9006520233A464146FFF70A
:101EE00011FF3048844206D1CDE9006520233A46EF
:101EF0004146FFF707FF2A48844206D1CDE9006535
:101F000020233A464146FFF7FDFE2248844206D18F
:101F1000CDE9006500233A464146FFF7F3FE1A4833
:101F20008442C2D1CDE9006520233A464146FFF7FD
:101F3000E9FEBAE72DE9FC470446DDE90A651E48DB
:101F40001F4690468946844205D1CDE90065134677
:101F50003A46FFF7D7FE1648844206D1CDE9006520
:101F600043463A464946FFF7CDFE0E48844206D125
:101F7000CDE9006543463A464946FFF7C3FE0848A7
:101F8000844225D143461DE0005401400018024020
:101F90000014024000500140001C024000100240AA
:101FA00000340140003C00400004024000080240B0
:101FB0000038004000200240003001400000024094
:101FC00044380240CDE900653A464946FFF79AFE9B
:101FD0007748844206D1CDE9006543463A464946F2
:101FE000FFF790FE7348844206D1CDE90065434671
:101FF0003A464946FFF786FEBDE8FC877FB50D00EF
:10200000044620D06846FEF777FA6B48844208D031
:102010006A48844205D06648844202D065488442BA
:1020200001D1039900E0029900200124421C04FA26
:1020300002F3B1FBF3F3AB4202D8C00004B070BDB1
:10204000D0B20828F2D33820F8E702880388C2F318
:10205000C02223F0400303800129018808D021F425
:1020600000610180018841F0400101801046704705
:1020700041F40061F5E730B50488640614D504899D
:10208000A407FCD004892406F9D400240AE00D5DDD
:1020900085810589AD07FCD005892D06F9D4858990
:1020A0001555641C9C42F2D330BD10B503885B0605
:1020B00013D503899B07FCD003891B06F9D40023A1
:1020C00009E0CC5C84810489A407FCD0048924063F
:1020D000F9D484895B1C9342F3D310BD30B50488D6
:1020E000640613D50489A407FCD004892406F9D416
:1020F000002409E082810589AD07FCD005892D0601
:10210000F9D485890D55641C9C42F3D330BD30B59C
:102110000488640616D50489A407FCD00489240623
:10212000F9D400240CE031F8145085810589AD07FD
:10213000FCD005892D06F9D4858922F81450641C39
:102140009C42F0D330BD10B503885B0614D50389DB
:102150009B07FCD003891B06F9D400230AE031F861
:10216000134084810489A407FCD004892406F9D48F
:1021700084895B1C9342F2D310BD30B50488640699
:1021800014D50489A407FCD004892406F9D40024BA
:102190000AE082810589AD07FCD005892D06F9D4B6
:1021A000858921F81450641C9C42F2D330BD000094
:1021B0000050014000540140003001400034014013
:1021C00070472DE9F04F15460446DFF8E8B30026C6
:1021D000DFF8E4C304220123F848F94F87B04FF435
:1021E00080494BF6FF7A5C452DD1DCF8008048F43D
:1021F0000018CCF8008031B101290AD0022911D091
:10220000032916D019E0CDE9003201231A46C02176
:1022100005E0CDE9003201231A464FF4407100F089
:1022200016FF0AE0CDE9003201231A464FF410717F
:10223000F5E704215846FFF7C3FF3868A84200D9E4
:102240003D60386866E0DFF87CB3DFF87CE35C452E
:102250002ED1DCF8008048F48008CCF8008031B141
:1022600001290BD0022912D0032917D01AE0CDE999
:10227000003201231A464FF4406105E0CDE90032F7
:1022800001231A460321D14800F0E1FE0AE0CDE91E
:10229000003201231A4630217046F5E704215846E2
:1022A000FFF78EFF7868A84200D97D60786831E03A
:1022B000C748844239D1DCF8008048F40008CCF8E3
:1022C000008021B1012913D003291BD01DE09B46BA
:1022D00090460123CDE900B81A461902BD4800F026
:1022E000B6FE0123CDE900B81A465902BA4806E005
:1022F000CDE9003201231A464FF4C071704600F058
:10230000A6FE02E00421FFF75BFFB868A84200D9EF
:10231000BD60B868ADF80C60ADF810600290ADF823
:102320001490ADF81260ADF80EA0208820F00100E6
:10233000208002A92046FEF76FFB208840F00100B4
:10234000208007B0BDE8F08F70B50446008820F407
:1023500080602080208840F400702080984D44F6F2
:1023600020602D1F9D4E286003E02A68521E2A60BF
:1023700008D031462046FEF799FC0028F5D0208A87
:10238000C0B270BD012070BD70B50446008840F435
:10239000807020808A4D44F620662D1F2E6003E059
:1023A0002868401E28602AD0A08AC007F8D01BB138
:1023B000208840F4806020805AB921F001002082FA
:1023C0002E6003E02868401E286018D0A08A80078D
:1023D000F8D5012A10D141F0010020822E607F4EF5
:1023E0003E3E03E02868401E286008D03146204663
:1023F000FEF75CFC0028F5D0208B002070BD01208A
:1024000070BD6F4A44F62061121F116003E011682D
:10241000491E11600BD0818A0906F8D5818A4907C7
:10242000F5D5018841F4007101800020704701203A
:102430007047634B44F620621B1F1A60828A1206A3
:1024400003D41A680AB1521EF7E70182704770B5CB
:10245000164600230C4605461A46FFF795FF3146FF
:102460002846FFF7E6FF2846FFF7CBFF00230122AF
:1024700021462846FFF788FF2846BDE8704063E7FD
:1024800070B50546008840F4806028804C4C44F6C6
:102490002060241F514E206003E02268521E2260FB
:1024A00008D031462846FEF701FC0028F5D0288ADE
:1024B000C0B270BD012070BD2DE9F0411C46174629
:1024C0000E46804601230022069DFFF75DFF394638
:1024D0004046FFF7AEFF01231A4631464046FFF75C
:1024E00053FF05E0404645B1FFF7CAFF04F8010B72
:1024F0006D1EADB2F6D2BDE8F081FFF725FFF5E71E
:1025000010B5012304461A46FFF73EFF2046BDE8FA
:10251000104019E770B51C461546012306461A46B9
:10252000FFF732FF04E0304634B1FFF7A9FF28700F
:10253000641EA4B2F7D270BDFFF706FFF7E770B5CF
:102540001D461646002304461A46FFF71DFF314676
:102550002046FFF76EFF29462046FFF76AFF204618
:10256000BDE870404DE72DE9F0411D4617460023B8
:1025700006461A46069CFFF707FF394601E015F8A4
:10258000011B3046FFF755FF641EA4B2F7D2304658
:10259000BDE8F04135E770B51546002304461A46FC
:1025A000FFF7F2FE29462046FFF743FF2046BDE82D
:1025B000704026E7005400404038024000040240CA
:1025C0003400002000580040001C0240001402406B
:1025D000005C004000000240000802404000030090
:1025E00070B51C461546002306461A46FFF7CCFE7A
:1025F00004E015F8011B3046FFF71BFF641EA4B270
:10260000F7D23046BDE87040FBE670B500240546C1
:1026100001232246FFF7B8FE00B901242846FFF740
:10262000F0FE204670BD00000288520601D4002052
:10263000704702899207FCD002891206F9D4818181
:1026400001898907FCD001890906F9D48089C0B2C3
:10265000704770B505464FF40051FE48FEF78DF9FE
:10266000FD4C04212046FEF788F92946FB48FFF778
:10267000DBFF2046BDE870400421FEF77CB970B551
:1026800005464FF40051F348FEF775F9F24C04216A
:102690002046FEF772F92946F048FFF7C5FF2046AD
:1026A000BDE870400421FEF766B92DE9F041074608
:1026B0001C4615460E462A20FFF7CBFF380AFFF7C7
:1026C000DEFFF8B2FFF7DBFF280AFFF7D8FFE8B21A
:1026D000FFF7D5FF2B20FFF7BCFF300AFFF7CFFF36
:1026E000F0B2FFF7CCFF200AFFF7C9FFE0B2BDE868
:1026F000F041C4E72DE9F0411D4614460E46074659
:10270000DDF81880FFF7D1FF2C20FFF7A2FFE41BB4
:10271000A81B401C641CD04F444304213846FEF7DC
:102720002CF94FF40051CB48FEF725F9CB4E01218F
:102730003046FFF78AFC4FF48035AC4201D3681E67
:1027400000E0204682B24146304600F064FE30464A
:1027500000F094FE0028FAD1AC420AD3641CA2B265
:102760004146304600F057FE304600F087FE002814
:10277000FAD104213846FEF7FEF83046BDE8F041B4
:102780000021FFF762BC08B580B20090B448002178
:1027900043880088401E82B20846FFF7ABFF08BDA1
:1027A00001B5009801E0401E00900028FBD108BD53
:1027B00070B5A84D4FF4805421462846FEF7DDF849
:1027C00044F620663046FFF7EBFF21462846FEF729
:1027D000D2F83046FFF7E4FF0120FFF73AFF4CF252
:1027E0005030FFF7DDFFCB20FFF733FF3920FFF735
:1027F00046FF2C20FFF743FF0020FFF740FF342067
:10280000FFF73DFF0220FFF73AFFCF20FFF721FF40
:102810000020FFF734FFC120FFF731FF3020FFF722
:102820002EFFE820FFF715FF8520FFF728FF002087
:10283000FFF725FF7820FFF722FFEA20FFF709FFC7
:102840000020FFF71CFF0020FFF719FFED20FFF726
:1028500000FF6420FFF713FF0320FFF710FF122093
:10286000FFF70DFF8120FFF70AFFF720FFF7F1FECA
:102870002020FFF704FFC020FFF7EBFE2320FFF727
:10288000FEFEC120FFF7E5FE1020FFF7F8FEC52091
:10289000FFF7DFFE3E20FFF7F2FE2820FFF7EFFEF6
:1028A000C720FFF7D6FE8620FFF7E9FE3620FFF7A8
:1028B000D0FE4820FFF7E3FE3A20FFF7CAFE55207E
:1028C000FFF7DDFEB120FFF7C4FE0020FFF7D7FEC3
:1028D0001820FFF7D4FEB620FFF7BBFE0820FFF755
:1028E000CEFE8220FFF7CBFE2720FFF7C8FEF220A6
:1028F000FFF7AFFE0020FFF7C2FE2A20FFF7A9FE78
:102900000020FFF7BCFE0020FFF7B9FE0020FFF714
:10291000B6FEEF20FFF7B3FE2B20FFF79AFE002054
:10292000FFF7ADFE0020FFF7AAFE0120FFF7A7FE8C
:102930003F20FFF7A4FE2620FFF78BFE0120FFF7C4
:102940009EFEE020FFF785FE0F20FFF798FE312066
:10295000FFF795FE2B20FFF792FE0C20FFF78FFE6E
:102960000E20FFF78CFE0820FFF789FE4E20FFF7B0
:1029700086FEF120FFF783FE3720FFF780FE072059
:10298000FFF77DFE1020FFF77AFE0320FFF777FEAA
:102990000E20FFF774FE0920FFF771FE0020FFF7FD
:1029A0006EFEE120FFF755FE0020FFF768FE0E20C7
:1029B000FFF765FE1420FFF762FE0320FFF75FFEBE
:1029C0001120FFF75CFE0720FFF759FE3120FFF7CB
:1029D00056FEC120FFF753FE4820FFF750FE0820A7
:1029E000FFF74DFE0F20FFF74AFE0C20FFF747FED2
:1029F0003120FFF744FE3620FFF741FE0F20FFF79E
:102A00003EFE1120FFF725FE1648FFF7C9FE2920DC
:102A1000FFF71FFEBDE870402C201AE62DE9FC41AF
:102A2000012500240B4E23462A4669033046CDE992
:102A3000004500F0FBFA084F00230122042138462C
:102A4000CDE9004500F0F2FA0023012211033046DF
:102A50000AE00000000C0240000802400050014063
:102A60004400002040420F00CDE9005400F0DEFA9F
:102A700004213846FDF77FFFFE4E00213046FFF768
:102A8000D2F9304600F0EFFBFFF792FEFA48F02152
:102A900044800480001D01804FF4A07141800571C5
:102AA000BDE8FC414FF6FF706DE62920D1E52820F6
:102AB000CFE510B514460B460246FFF7F6FD2C2075
:102AC000FFF7C7FDC4F30720FFF7D9FDE0B2BDE86B
:102AD0001040D4E52DE9F04104463620FFF7B9FD5A
:102AE000E54DF0272D1D4FF4A07634B1012C06D012
:102AF000022C0BD0032C0BD00DE0582000E08820D6
:102B0000FFF7BDFD2F806E80012007E0282000E048
:102B1000E820FFF7B4FD2E806F8000202871BDE80B
:102B2000F0812DE9F84F1D469146DDE90AA3D24A0E
:102B3000108051802C782044141D2488A04204D990
:102B40006878084450800020108098B200906B781C
:102B500090465188B8F800005A1893B22A78024477
:102B600092B2FFF7C7FD00261CE0A9F1200111FB7E
:102B700000606A68002432F810700FE007FA04F071
:102B800000040AD5B8F80210B8F800003144204417
:102B900089B280B25246FFF78CFF641C2878A042AD
:102BA000ECD8761C6878B042DFD82978B8F80020D5
:102BB0001144A8F80010BDE8F88F2DE9FC47AE4D90
:102BC000DDE90A9828801F461446064669800BE016
:102BD0000A2A0ED00D2A15D0CDE900983B46698807
:102BE0002888641CFFF79DFF2278002AF0D1BDE8F9
:102BF000FC8768887978401C0844688060780D28D4
:102C000002D02E80641CEFE700202880641CF9E7C6
:102C100030B54D7800241D8002E00B7823449CB22F
:102C200010F8013B002BF8D1148030BD2DE9FC5F7A
:102C30009046914A0C46121D054611881F46481EB3
:102C4000A94200D885B2414501D81FFA80F85188C1
:102C5000481EA14200D884B2B94200D887B2454587
:102C600002D9284645468046BC4202D920463C4609
:102C70000746A8EB050000B25FEA000AA7EB0400D4
:102C80000FFA80F908D0B9F1000F05D04FF0FF30EE
:102C900045450CD201210BE00C983B4680B20090D8
:102CA000424621462846FFF725FDBDE8FC9F014628
:102CB0000191BC4200D2012000905046CA4501DC7F
:102CC000C9F1000000EBD070401006B2CAF1000B51
:102CD000214628460C9AFFF7ECFE454501D1BC423F
:102CE000E3D030465E4505DDA0EB09010EB2019947
:102CF00029448DB24845EBDA06EB0A0006B200988B
:102D0000204484B2E4E72DE9F8431D46089C1646AA
:102D10000F4680460B460094FFF788FF42462B463D
:102D2000394610460094FFF781FF32462B4639465C
:102D300010460094FFF77AFF2B463246194640466C
:102D40000094FFF773FFBDE8F88338B59042049D07
:102D500002D9044610462246994202D90C46194629
:102D60002346ACB20094FFF7C5FCBDE8384004210F
:102D70004248FDF700BE2DE9FF4F0746C2F10100B2
:102D800014460FFA80F8C2EBC43040000FFA80F905
:102D900083B00E46081981B24FF0010A0025B8B27F
:102DA000069AFFF786FE301B81B2B8B2069AFFF78B
:102DB00080FE3819B1B280B2069AFFF77AFEB1B23E
:102DC000381B56E0B8F1000F09DB09F102000FFAD9
:102DD00080F9641E08EB090024B20FFA80F80AF1AA
:102DE00002000FFA80FA6D1C08EB0A002DB20FFAF0
:102DF00080F87819019006EB040B1FFA8BF180B272
:102E0000069AFFF756FE781B00901FFA8BF180B2EE
:102E1000069AFFF74EFE0198A6EB040B1FFA8BF102
:102E200080B2069AFFF745FE00981FFA8BF180B238
:102E3000069AFFF73EFE3819019006EB050B1FFAC4
:102E40008BF180B2069AFFF734FE381B00901FFA10
:102E50008BF180B2069AFFF72CFE0198A6EB050BCA
:102E60001FFA8BF180B2069AFFF723FE1FFA8BF14F
:102E7000009805E00050014040000020000802409A
:102E800080B2069AFFF715FEA5429BDB07B0BDE8AE
:102E9000F08F2DE9FE4F0746C2F1010014460FFAEC
:102EA00080F8C2EBC43040000FFA80FA0E460819D1
:102EB00081B299464FF0010B0025B8B21A46FFF7D0
:102EC000F8FD301B81B2B8B24A46FFF7F2FD38195F
:102ED0000290B1B280B24A46FFF7EBFD381B019079
:102EE000B1B280B24A46FFF7E4FD0298B3B2CDF822
:102EF000009082B2B1B240E0B8F1000F09DB0AF1F4
:102F000002000FFA80FA641E08EB0A0024B20FFADE
:102F100080F80BF102000FFA80FB6D1C08EB0B0030
:102F20002DB20FFA80F8781982B20290781BCDE9A1
:102F3000009031198BB289B280B2FFF777FE019809
:102F4000311B82B202988BB2CDF8009089B280B268
:102F5000FFF76CFE381B82B202903819CDE9009061
:102F600071198BB289B280B2FFF760FE711B0298B3
:102F70008BB2CDF8009082B289B2019880B2FFF78F
:102F800055FEA542B8DBBDE8FE8F0000A34908440A
:102F9000C0F38F2070472DE9F04F9A46DDE909B85C
:102FA00089460346FFF7F2FFC5B200204FF0030E3B
:102FB0000121814011EA090F28D0994E36F81540B9
:102FC0000C4326F81540DF6844000EFA04F6B743B8
:102FD0000BFA04FC47EA0C07DF601F6802FA04FCE6
:102FE000B74347EA0C071F60012A01D0022A0DD11E
:102FF0005F6889B28F430AFA00F189B20F435F60BC
:10300000996808FA04F4B14321439960401CC0B2A6
:103010001028CDD3BDE8F08F00B5FFF7B7FF012131
:103020008140804802681143016000BDFCB516462E
:10303000DDE907C50C00074608D0FFF7EDFFCDE935
:1030400000C5324621463846FFF7A5FFFCBD2DE9F5
:10305000FC4F9946DDE90BB792460D00064622D09B
:10306000FFF7DAFF002201214FF00F0C01FA02F006
:1030700028420DD0D00806EB8003186A5407E40EEE
:103080000CFA04F820EA080007FA04F42043186256
:10309000521C102AEAD3CDE9009B5346022229464E
:1030A0003046FFF778FFBDE8FC8FF0B50E460546C9
:1030B000FFF76CFF00225A49C4B24FF0010C0327FE
:1030C0000CFA02F333420CD028684FEA420E07FA9A
:1030D0000EFE40EA0E00286031F81400984321F8F3
:1030E0001400521CD2B2102AEAD3F0BDF0B500226F
:1030F0000125032605FA02F30B4205D004685700A8
:1031000006FA07F39C430460521CD2B2102AF1D392
:10311000F0BDF0B500220127032607FA02F33C4672
:103120000B4208D00568530006FA03FC25EA0C059B
:103130009C4025430560521CD2B2102AEDD3F0BD4D
:10314000F0B500220125032605FA02F30B4205D053
:103150000468570006FA07F31C430460521CD2B2FD
:10316000102AF1D3F0BDF0B5002201260324022776
:1031700006FA02F30B4209D00568530004FA03FC77
:1031800025EA0C0507FA03F31D430560521CD2B271
:10319000102AEDD3F0BDF0B500230127032507FA6F
:1031A00003F40C4209D0C6685C0005FA04FC26EA68
:1031B0000C0602FA04F42643C6605B1CDBB2102B3B
:1031C000EDD3F0BD41F48032C261C161C261C16919
:1031D000C0697047002102E0491C89B240080128FB
:1031E000FAD80846704700B5FFF7D0FE01218140AC
:1031F0000C4802688A43026000BD00B5FFF7C6FEB6
:10320000074931F8100000BD00B5FFF7BFFE0449C3
:1032100031F81000C04380B200BD00000000FEBFC6
:103220000C01002030380240AF4A0146904200D1E4
:10323000AE48AF4A914201D1AC481830AD4A9142F4
:1032400001D1AA483030AC4A914201D1A748483058
:10325000AA4A914201D1A5486030A94A914201D1C0
:10326000A2487830704710B5FFF7DEFFA54AA6499F
:10327000436893420B6802D343F4800301E043F4B4
:1032800000130B60C0689042086802D340F48000CD
:1032900001E040F4001008609C4900204861C861CA
:1032A000086248628862C86208634863886310BD28
:1032B0002DE9F0411F4614460D468046069EFFF755
:1032C000B3FF80E8F0004046BDE8F041CBE710B521
:1032D000FFF7AAFF04464068FDF7C8FEE068BDE8B6
:1032E0001040FDF7C3BE2DE9F0479A4617460D463C
:1032F0000646FFF799FF0446C068406818BB60683F
:10330000406800BB55EA07001DD0DFF800824FF08F
:103310000009A4F81490C8F82090C8F810A006F18D
:103320000C01C8F81C90C8F804102168C8F80010F7
:10333000402140464FF4806AC8F80C1035B18560D2
:10334000C8F818A007E00020BDE8F08704F11001DC
:103350008160C8F818903D21606800F0D9F86B4989
:103360006068FDF70BFFA168C8F8001040464946A9
:10337000C8F80C901FB18760C8F818A004E004F1E9
:1033800010028260C8F818103D21E06800F0C0F813
:103390005E49E068FDF7F2FEE068016841F0010176
:1033A00001606068016841F001010160B08840F08F
:1033B0000300B0800120C7E72DE9F04116460F4613
:1033C0000546FFF731FF04464068406810B1002011
:1033D000BDE8F0814D48276105F10C0106614160AF
:1033E000002181612268026040220162C260C161E5
:1033F0003D21606800F08CF844496068FDF7BEFE2E
:103400006068016841F001010160A88840F0020095
:10341000A8800120DCE72DE9F04116460F4605465D
:10342000FFF702FF04464068406808B10020CFE77C
:103430003648A78205F10C010661416004F11401D0
:10344000816000218161216801604021C160C90162
:1034500001628910C1613D21606800F059F82B4973
:103460006068FDF78BFE6068016841F00101016052
:10347000A88840F00200A8800120A9E710B5044602
:10348000FFF7D2FEC168496841B94068406828B971
:103490002089800702D02089000601D5012010BDB7
:1034A000002010BD10B5FFF7BFFE406810BD10B57D
:1034B000FFF7BAFEC06810BD10B5FFF7B5FE0446B1
:1034C000406800F05BF8E068BDE8104000F056B8D6
:1034D00010B5FFF7A9FE0446406800F07EF8E068EA
:1034E000BDE8104000F079B8003001404C000020E9
:1034F00000380040003C00400034014000500140D2
:103500000054014010640240303802402401002081
:10351000784A10B51823904202D2774A774C03E0DC
:10352000744A744C083A64422044B0FBF3F0042817
:1035300001D3001F121D724B01F03D01185C814048
:10354000116010BD3D21E3E76A491822884203D289
:1035500069496A4B083903E06649664B10395B429A
:103560001844B0FBF2F0042801D3001F091D0968BC
:10357000634A105CC14001F03D00704738B5044615
:103580003D21FFF7C5FF5E4A5A4B1820121D01214D
:103590009C4207D2594B8DF801102344B3FBF0F045
:1035A000125C08E0534B8DF801105B422344B3FBDF
:1035B000F0F00244127A8DF800208DF803108DF897
:1035C00002006846FCF76FFE206840F01E00206095
:1035D000606940F08000606138BD10B504463D214F
:1035E000FFF796FF4648434A1821001D944201D236
:1035F000424A01E03F4A52422244B2FBF1F14056B6
:10360000012100F01F0291404009800000F1E020FC
:10361000C0F88011206820F01E002060606900F072
:103620008000606110BD70477047704770477047F9
:1036300070B505463D21FFF787FF84B23D2128463E
:10364000FFF766FFA00605D52868C00602D5284604
:10365000FFF7E9FFE00605D52868000702D52846F0
:10366000FFF7E2FF200705D52868400702D5284666
:10367000FFF7DBFF600705D52868800702D52846DD
:10368000FFF7D4FFE00705D06869000602D5284699
:10369000FFF7CDFF70BD18480830C9E71648203045
:1036A000C6E715483830C3E713485030C0E7124822
:1036B0006830BDE710488030BAE70F489830B7E768
:1036C0000D48B030B4E70B48B2E70A481830AFE70E
:1036D00008483030ACE707484830A9E70548603073
:1036E000A6E704487830A3E702489030A0E70148F5
:1036F000A8309DE71064024008600240F09FFDBFC3
:10370000BA57000810B58AB00446002001218DF890
:103710001410C34A8DF80500C2490490039002902A
:103720008DF80400944203D10A6842F480720CE0E0
:10373000BD4A944203D10A6842F4007205E0BB4AD4
:10374000944204D10A6842F480620A6000900890B2
:1037500006904FF4803007904FF44070099006A80F
:10376000FDF74BFE69462046FDF71CFEA06840F0C1
:103770000100A0600AB010BD1CB501230222CDE9F2
:10378000002300230322FFF751FC1CBDA4498842FB
:1037900002D0A549884202D12021A54804E0A349CE
:1037A000884202D12021A348E6E7704710B50446BD
:1037B0009B48844202D09C48844203D110219C48FB
:1037C000FFF7DAFF9948844204D1BDE81040102188
:1037D0009848D1E710BD08219548CDE704219448C9
:1037E000CAE702219248C7E701219148C4E710B512
:1037F00004468B48844202D08B48844203D1022184
:103800008D48FFF7B9FF8948844204D1BDE81040D4
:1038100008218848B0E710BD10B5044680488442AE
:1038200002D08148844203D101218348FFF7A4FFDD
:103830007E48844204D10115BDE810407D489BE7D5
:1038400010BD10B504467648844202D076488442C2
:1038500003D180217948FFF78FFF7448844204D157
:103860004115BDE81040734886E710BD10B5044609
:103870006B48844202D06C48844203D140216F4897
:10388000FFF77AFF6948844204D18115BDE81040F2
:10389000684871E710BD10B504466148844202D003
:1038A0006148844203D120216448FFF765FF5F48E7
:1038B000844204D1BDE8104080215E485CE710BD21
:1038C00010B504465648844202D05748844203D17A
:1038D00010215A48FFF750FF5448844204D1BDE8F4
:1038E00010404021534847E710BD0821534843E7A3
:1038F0000421524840E7022150483DE701214F484A
:103900003AE710B504464D48F9B101291FD0022904
:103910001FD003291FD0042921D0052923D006292F
:1039200025D0072927D0082929D009292BD040489C
:103930000A290AD00B290AD00C290AD00D290AD04D
:103940000E2924D00F2926D028E0012104E00221ED
:1039500002E0042100E00821FFF70EFF1EE02046F0
:10396000FFF7AEFF1AE02046FFF795FF16E020466E
:10397000FFF77CFF12E02046FFF763FF0EE02046D2
:10398000FFF74AFF0AE02046FFF731FF06E0204636
:10399000FFF70CFF02E02046FFF7F8FE2046BDE8E7
:1039A0001040AFE670B50123054640F6FF741A4695
:1039B000FDF76DFDA86840F08040A86002E0204659
:1039C000641E04D328688007F9D5E86C80B270BD06
:1039D0001348D0F8041341F48001C0F80413704771
:1039E0000F48D0F8041321F48001C0F80413704785
:1039F00010B50446052301221221FDF748FDA068F9
:103A000040F08040A06020688007FCD5E06C43F265
:103A10009031484340F6FF71B0FBF1F080B210BD29
:103A200000200140443802400021014000220140B2
:103A3000000802400014024000040240000002405E
:103A4000F0B57F4C0746ADF5537D20680E46B0F5C6
:103A5000967F1ADA6D4605EB400180B231F8281CDA
:103A60000022FFF726F80A20B7FBF0F0301A81B2E7
:103A7000206805EB400280B222F8281C4FF4FC625B
:103A8000FFF717F82068401C00E0142020600DF5B7
:103A9000537DF0BD2DE9F84F00264FF01F094FF080
:103AA000280A4FF03C0B00F1500500F13C0406EBF6
:103AB00086084FF0140C0AEBC8070CEBC800A3B241
:103AC000BAB2A1B280B2CDF80090FFF7AFF80BEB1D
:103AD000C808ABB21FFA88F2A9B2B8B2CDF800900C
:103AE000FFF7A4F8ABB21FFA88F2A1B21FFA88F070
:103AF000CDF80090FFF79AF8ABB2BAB2A1B2B8B263
:103B0000CDF80090FFF792F8761C072ECFDBBDE8CA
:103B1000F88F2DE9FC410020FEF735FE4FF6E070EE
:103B200014210090E1234FF496720846FFF7EBF85A
:103B300000214FF6E430CDE90001424B42A20521BD
:103B40006420FFF73AF8002547F6EF370024C5EB6D
:103B500005161436C4EB0410143082B2B3B2B1B2FD
:103B600080B20097FFF762F8641C132CF2DB6D1C27
:103B70000E2DEBDBBDE8FC818CB000F0F6F8FEF713
:103B80004DFFFDF772FE00254FF6E434022807D002
:103B90001421334B33A20846CDE90045FFF70DF859
:103BA000344E00213046FFF7ACFE0320FEF792FFB3
:103BB00003208DF82E00FFF7ACFF0020FFF76AFF0F
:103BC00000213046FFF7EEFE074602462AA102A872
:103BD00000F090F9224B29A250216420CDE9004544
:103BE000FEF7EBFF1E4B28A264218C20CDE9004597
:103BF000FEF7E3FF1A4B02AA64218C20CDE90045B1
:103C0000FEF7DBFF0AA8FDF727FF98B9BDF82800EB
:103C10001438B0F58C7F0DD2BDF82A00142809D3D2
:103C2000CD2807D2FFF775FFBDF82A003C3880B2D7
:103C3000FFF730FF8C213846FFF702FFC0E7000096
:103C4000DC0000202000002050726F746F747970C7
:103C5000206F7363796C6F736B6F70750000000079
:103C60002800002053544D504538313120457272A0
:103C70006F7200000020014025646C004F64637A7D
:103C80007974204144433A00202020202020000065
:103C90007047FEE7FEE7FEE7FEE7704770477047B4
:103CA000704710B5FDF71CFD10BD00001CB50021CC
:103CB0005B4A00910191106840F4803010604FF42D
:103CC000A043106800F4003001900098401C009060
:103CD000019810B900989842F3D11068800342D53A
:103CE000012001904E484030016841F08051016050
:103CF0004C49086840F4404008604948083003686F
:103D00000360036843F400430360036843F4A05373
:103D10000360041F444B2360136843F080731360F7
:103D200013689B01FCD50A6842F480320A604A6835
:103D3000D203FCD50A6842F400320A604A68920352
:103D4000FCD53A4A40F205711160016821F0030187
:103D50000160016841F0020101600168C1F3810165
:103D60000229FAD11CBD01911CBD314810B5016872
:103D700041F4700101602A48016841F001010160CD
:103D8000274A00210832116002682A4B1A4002605B
:103D9000031D294A1A60026822F48022026020482A
:103DA0000C300160FFF782FF21494FF0006080393D
:103DB000086010BD70B51A4D083528681F4B2049A2
:103DC00010F00C0004D01F4E042803D0082803D0A4
:103DD0000B601BE00E6019E0114A121D1068C0F361
:103DE0008054106800F03F0014B1B6FBF0F001E021
:103DF000B3FBF0F013681268C3F388135843C2F39F
:103E00000142521C5200B0FBF2F0086028680C4AD4
:103E1000C0F30310121D105C0A68C2400A6070BD36
:103E20000038024000700040085A4007003C024041
:103E300088ED00E0FFFFF6FE103000240024F400BF
:103E4000E000002040787D0170B5064600F0DAF809
:103E5000056806F10B0020F00704B4429CBF002067
:103E600070BD2B466A68BAB11068A04210D304F145
:103E7000080188423CBF5068586007D35168101948
:103E800041601168091B016058601460101D70BD0D
:103E900013465268002AE7D12146284600F0BAF8B6
:103EA0000028DED170BD70B50446051F00F0AAF8E9
:103EB0000068002C14BF446870BD002C18BFAC42D1
:103EC0003CBF20466468F8D301680A18AA4218BFAC
:103ED000456003D12A6805461144016028684119EC
:103EE000A1421CBF6C6070BD6168696021680844B4
:103EF000286070BD0FB41CB5074B06AA7B44694609
:103F00000090059800F02FF90020694600F03EF976
:103F10001CBC5DF814FB00008D0200002DE9F0418F
:103F20000E460446002020622046E168884730B3F0
:103F3000252805D0D4E901219047206A401CF2E7EA
:103F4000E168204600278847050018D0A5F1410008
:103F5000192802D820354FF40067324629462046FA
:103F60002760FCF75DF940B1012804D0F61D26F06A
:103F700007060836D8E7361DD6E72846DAE7206A6E
:103F8000BDE8F0812DE9F04106460024106875294E
:103F9000314616A510D0AFF30080002802DA404267
:103FA00013A507E031688A0701D512A502E0490789
:103FB00004D511A5012401E0AFF3008000210A22FD
:103FC00006F1240709E0B0FBF2FCB0FBF2F302FBC0
:103FD0001C00303078541846491C0028F3D1234681
:103FE0002A463046BDE8F04100F05EB8000000000F
:103FF0002D0000002B0000002000000070477047DB
:104000007047000000487047680100207047704703
:104010007047704738B504460A4600206946AFF33A
:104020000080002808BF38BD02460099204600F0F5
:10403000B7F8012038BD012000F0CCB8F8B5AFF3D7
:104040000080054600200C46102000BF0646A81937
:10405000A0420DD9324669460020AFF30080070028
:1040600008BF00F0B7F80098A04218BF0546C41971
:10407000FFF7C8FF05600746F01D20F0070046194E
:10408000284600F00AF8B44208BFF8BDA21B31462A
:104090003868BDE8F84000F083B800210160C0E94D
:1040A00001107047102070472DE9F0470D469946E2
:1040B0009246044600F124080168880604D5E069A8
:1040C00021F01001216000E00120A84201DD471B22
:1040D00000E00027A1697A1902EB0900081AA06123
:1040E0002078C00602D42046AFF30080002608E006
:1040F000D4E901211AF806009047206A401C761C7A
:1041000020624E45F4DB2078C0060AD52046AFF386
:10411000008006E0D4E9012130209047206A401C4D
:104120002062381EA7F10107F4DC07E0D4E9012181
:1041300018F805009047206A401C2062281EA5F14F
:104140000105F3DC2046AFF300802078000602D59D
:104150000220BDE8F0870120FBE7000001694A1C4E
:1041600002610878704700B58FB0CDE901310021B8
:10417000059105497944CDE9031011466846FFF7DA
:10418000CDFE0FB000BD0000E5FFFFFF0A6802F89A
:10419000010B0A6070470000004870476001002072
:1041A000034640688C46002818BF88423CBF03463F
:1041B0004068F8D318681844884207D00CF103000F
:1041C00020F00700001D411A521A0146081D0A601E
:1041D000FFF769BE10B500F039F8BDE8104000F0F7
:1041E0002FB870477546FFF7D7FFAE460500694602
:1041F000534620F00700854618B020B5FCF73CF880
:10420000BDE820404FF000064FF000074FF00008D7
:104210004FF0000B21F00701AC46ACE8C009ACE858
:10422000C009ACE8C009ACE8C0098D46704710B5BC
:104230000446AFF300802046BDE81040FCF708B804
:10424000002801D000F02AB87047000010B50128FE
:1042500005D0002103A000F027F8012010BD09A11E
:10426000F8E7000053494752544D454D3A204F75E9
:1042700074206F662068656170206D656D6F72795E
:10428000000000003A2048656170206D656D6F7216
:104290007920636F7272757074656400014918202B
:1042A000ABBEFEE72600020070B505460C460A20AC
:1042B00000E06D1C00F011F835B128780028F8D125
:1042C00002E0641C00F009F814B120780028F8D14D
:1042D000BDE870400A20AFF3008008B569468DF84C
:1042E00000000320ABBE08BD4FF04070E1EE100AA5
:1042F0007047000000000000000000000000000007
:10430000000000000000001000100010001000105D
:104310000010000000100000000000280028002805
:104320000000000000000000000000000000002469
:104330000024007C00240048007C00480048000065
:10434000000000380054005000380014005400549D
:1043500000380010000000200054005800300028F1
:10436000005400140008000000000010002800287D
:104370000010003400480048003400000000001025
:10438000001000100000000000000000000000000D
:104390000000000800100020002000200020002065
:1043A000002000100008002000100008000800088D
:1043B000000800080008001000200010003800105D
:1043C00000280000000000000000000000000000C5
:1043D000000000100010007C001000100000000021
:1043E00000000000000000000000000000000000CD
:1043F000001000100010000000000000000000008D
:104400000038000000000000000000000000000074
:104410000000000000000000001000000000000884
:104420000008001000100010001000200020000004
:10443000000000380044004400540044004400449C
:104440000038000000000010003000500010001084
:10445000001000100010000000000038004400446C
:104460000004000800100020007C0000000000385C
:104470000044000400180004000400440038000058
:10448000000000080018002800280048007C0008F0
:10449000000800000000007C00400040007800049C
:1044A00000040044003800000000003800440040D0
:1044B0000078004400440044003800000000007C04
:1044C0000004000800100010002000200020000060
:1044D0000000003800440044003800440044004418
:1044E0000038000000000038004400440044003C54
:1044F000000400440038000000000000000000102C
:10450000000000000000000000100000000000009B
:10451000000000000010000000000000001000106B
:10452000001000000000000C003000400030000CC3
:10453000000000000000000000000000007C0000FF
:10454000007C00000000000000000000000000608F
:10455000001800040018006000000000000000388F
:1045600000440004000800100010000000100000CB
:10457000000000380044004C0054005C0040004043
:104580000038000000000010002800280028002843
:10459000007C004400440000000000780044004417
:1045A0000078004400440044007800000000003817
:1045B000004400400040004000400044003800003B
:1045C00000000070004800440044004400440048DB
:1045D000007000000000007C00400040007C0040B3
:1045E00000400040007C00000000007C00400040D3
:1045F000007800400040004000400000000000380B
:10460000004400400040005C0044004400380000CA
:104610000000004400440044007C00440044004486
:1046200000440000000000380010001000100010CE
:104630000010001000380000000000040004000416
:10464000000400040004004400380000000000449E
:10465000004800500060005000480048004400003E
:10466000000000400040004000400040004000408A
:10467000007C000000000044006C006C005400440A
:104680000044004400440000000000440064006452
:1046900000540054004C004C00440000000000385E
:1046A000004400440044004400440044003800003A
:1046B00000000078004400440044007800400040BE
:1046C0000040000000000038004400440044004462
:1046D0000044005400380004000000780044004406
:1046E0000044007800480048004400000000003802
:1046F000004400400030000800040044003800007E
:104700000000007C001000100010001000100010CD
:104710000010000000000044004400440044004435
:1047200000440044003800000000004400440044FD
:10473000002800280028001000100000000000449D
:104740000044005400540054006C0028002800006D
:104750000000004400280028001000100028002855
:10476000004400000000004400440028002800101D
:1047700000100010001000000000007C0004000881
:104780000010001000200040007C00000000001815
:104790000010001000100010001000100010001099
:1047A0000018002000200010001000100010000869
:1047B0000008000000000030001000100010001081
:1047C0000010001000100010003000100028002819
:1047D0000044000000000000000000000000000095
:1047E00000000000000000000000000000000000C9
:1047F00000FE00200010000000000000000000008B
:104800000000000000000000000000380044003CF0
:104810000044004C003400000000004000400058FC
:1048200000640044004400640058000000000000E0
:104830000000003800440040004000440038000000
:104840000000000400040034004C00440044004C0C
:104850000034000000000000000000380044007C2C
:1048600000400044003800000000000C0010007CF4
:1048700000100010001000100010000000000000E8
:1048800000000034004C00440044004C003400049C
:104890000078004000400058006400440044004498
:1048A0000044000000000010000000700010001024
:1048B0000010001000100000000000100000007048
:1048C00000100010001000100010001000E0004068
:1048D00000400048005000600050004800440000C4
:1048E00000000070001000100010001000100010F8
:1048F0000010000000000000000000780054005488
:104900000054005400540000000000000000005853
:104910000064004400440044004400000000000023
:104920000000003800440044004400440038000007
:1049300000000000000000580064004400440064CF
:10494000005800400040000000000034004C0044CB
:104950000044004C00340004000400000000005833
:1049600000640040004000400040000000000000E3
:104970000000003800440030000800440038000007
:1049800000000020002000780020002000200020EF
:104990000018000000000000000000440044004433
:1049A0000044004C003400000000000000000044FF
:1049B000004400280028002800100000000000002B
:1049C0000000005400540054006C0028002800002F
:1049D0000000000000000044002800100010002823
:1049E00000440000000000000000004400440028D3
:1049F0000028001000100010006000000000007C83
:104A00000008001000200040007C0000000000189A
:104A100000100010001000200020001000100010F6
:104A200000180010001000100010001000100010FE
:104A300000100010001000300010001000100008DE
:104A400000080010001000100030000000000000FE
:104A50000074004C00000000000000000000000096
:104A60000000000000000000000000000000000046
:104A70000000000000000000000000000000000036
:104A800000000000000C000C000C000C000C000CDE
:104A9000000C000C000C000C000C0000000C000CC2
:104AA0000000000000000000001B001B001B001B9A
:104AB000001B0000000000000000000000000000DB
:104AC00000000000000000000000000080198019B4
:104AD00080198019C07FC07F80190033C07FC07FDC
:104AE00000330033003300330000000000000000FA
:104AF000001E003F807580650074003C001E0007AA
:104B00008005806580658075003F001E00040004FC
:104B100000000000007000D840D8C0D880D90073D1
:104B20000006000C801BC036C066C046C00680036D
:104B30000000000000000000001E003F00330033B2
:104B40000033001E000CC03CC0668063806180633F
:104B5000C03E801C0000000000000000000C000CA3
:104B6000000C000C000C0000000000000000000021
:104B700000000000000000000000000000008000B5
:104B800000010003000600060004000C000C000CED
:104B9000000C000C000C00040006000600030001DD
:104BA0008000002000100018000C000C000400061B
:104BB000000600060006000600060004000C000CBB
:104BC0000018001000200000000C002D003F001E07
:104BD00000330000000000000000000000000000A2
:104BE00000000000000000000000000000000000C5
:104BF000000C000C000C000CC0FFC0FF000C000CEF
:104C0000000C000C0000000000000000000000008C
:104C10000000000000000000000000000000000094
:104C20000000000000000000000C000C0004000464
:104C3000000800000000000000000000000000006C
:104C400000000000001E001E000000000000000028
:104C50000000000000000000000000000000000054
:104C60000000000000000000000000000000000044
:104C7000000C000C00000000000000000003000316
:104C800000030006000600060006000C000C000CE5
:104C9000000C0018001800180000000000000000C0
:104CA000001E003F0033806180618061806D806DF7
:104CB0008061806180610033003F001E00000000C1
:104CC000000000000006000E001E00360026000650
:104CD00000060006000600060006000600060006A4
:104CE0000000000000000000001E003F8073806193
:104CF0008061800100030006000C00180030006095
:104D0000807F807F0000000000000000001C003E4B
:104D1000006300630003000E000E000380018001A9
:104D200080618073003F001E000000000000000052
:104D30000006000E000E001E001E00160036003693
:104D40000066807F807F00060006000600000000ED
:104D500000000000007F007F006000600060006EC7
:104D6000007F80638001800180618073003F001EAE
:104D70000000000000000000001E003F8033806142
:104D80000060006E007F807380618061806180338D
:104D9000003F001E0000000000000000807F807FB8
:104DA00080010003000300060006000C000C000C4C
:104DB00000080018001800180000000000000000A3
:104DC000001E003F8063806180610021001E003F63
:104DD0008061806180618061003F001E00000000F2
:104DE00000000000001E003F007380618061806150
:104DF0008073803F801D800180610073003F001E32
:104E000000000000000000000000000000000000A2
:104E1000000C000C0000000000000000000000007A
:104E2000000C000C0000000000000000000000006A
:104E3000000000000000000C000C0000000000005A
:104E400000000000000C000C00040004000800003A
:104E500000000000000080008003000E00380060A9
:104E60000038000E800380000000000000000000F9
:104E7000000000000000000000000000807F807F34
:104E800000000000807F807F000000000000000024
:104E900000000000000000000000000000000040D2
:104EA0000070001C000780010007001C007000401B
:104EB000000000000000000000000000001F803F14
:104EC000C071C060C000C00180030007000E000C6C
:104ED000000C0000000C000C0000000000000000AE
:104EE000001E003F803180718063806F806D806D17
:104EF000806F806700600032003E001C00000000F0
:104F000000000000000E000E001B001B001B001B19
:104F100080318031803F803F8031C060C060C060A0
:104F20000000000000000000007C007E00630063C1
:104F300000630063007E007E0063806180618063A7
:104F4000007F007E0000000000000000001E003F07
:104F5000803180610060006000600060006000607F
:104F600080618031003F001E000000000000000052
:104F7000007C007F0063806380618061806180616C
:104F80008061806100630063007E007C000000009F
:104F900000000000807F807F006000600060006093
:104FA000007F007F0060006000600060807F807F85
:104FB0000000000000000000807F807F0060006033
:104FC00000600060007F007F0060006000600060A3
:104FD000006000600000000000000000001E003FB4
:104FE0008031806100600060006080638063806168
:104FF00080618031803F001E000000000000000042
:10500000806180618061806180618061807F807F5C
:10501000806180618061806180618061000000004A
:1050200000000000003F003F000C000C000C000CD2
:10503000000C000C000C000C000C000C003F003FAA
:10504000000000000000000080018001800180015C
:105050008001800180018001800180618061807316
:10506000003F001E0000000000000000C0608061E2
:10507000006300660066006C0078007C00660066D5
:10508000006380618061C0600000000000000000DB
:105090000060006000600060006000600060006010
:1050A0000060006000600060807F807F0000000082
:1050B00000000000C071C071C07BC07AC06AC06AC5
:1050C000C06EC064C060C060C060C060C060C060CE
:1050D00000000000000000008071807180798079FC
:1050E0008079806D806D806D806580678067806766
:1050F000806380630000000000000000001E003F8D
:105100000033806180618061806180618061806145
:1051100080610033003F001E00000000000000001E
:10512000007E007F80638061806180618063007F9A
:10513000007E006000600060006000600000000011
:1051400000000000001E003F00338061806180612C
:10515000806180618061806580670033803F401E90
:105160000000000000000000007E007F806380617E
:1051700080618063007F007E006600630063806161
:105180008061C0600000000000000000000E001FF1
:105190008031803100300038001E000780038061BC
:1051A00080618031003F001E000000000000000010
:1051B000C0FFC0FF000C000C000C000C000C000C29
:1051C000000C000C000C000C000C000C0000000097
:1051D0000000000080618061806180618061806189
:1051E000806180618061806180618073003F001E0A
:1051F0000000000000000000C060C060C06080319E
:1052000080318031001B001B001B001B000E000EB4
:10521000000E00040000000000000000C0C0C0C07C
:10522000C0C0C0C0C0C0C0CC804C804C805E80522A
:1052300080528073806180610000000000000000E7
:10524000C0C0806080610033003B001E000C000C79
:10525000001E001F003B80718061C0C00000000084
:1052600000000000C0C08061806100330033001E78
:10527000001E000C000C000C000C000C000C000CBC
:105280000000000000000000803F803F800100031C
:1052900000030006000C000C00180018003000602D
:1052A000807F807F000000000000000F000F000CD6
:1052B000000C000C000C000C000C000C000C000C8E
:1052C000000C000C000C000C000C000F000F000084
:1052D000001800180018000C000C000C000C000650
:1052E00000060006000600030003000300000000A3
:1052F0000000001E001E0006000600060006000654
:10530000000600060006000600060006000600066D
:105310000006001E001E0000000C000C001E001203
:105320000033003380618061000000000000000055
:10533000000000000000000000000000000000006D
:10534000000000000000000000000000000000005D
:1053500000000000000000000000E0FF000000006E
:1053600000380018000C00000000000000000000E1
:10537000000000000000000000000000000000002D
:10538000000000000000000000000000001F803F3F
:1053900080618001801F803F80618063807FC03892
:1053A000000000000000000000600060006000607D
:1053B000006E007F80738061806180618061807396
:1053C000007F006E000000000000000000000000F0
:1053D00000000000001E003F8073806100600060DC
:1053E00080618073003F001E00000000000000008C
:1053F0008001800180018001801D803F8073806179
:105400008061806180618073803F801D00000000AA
:10541000000000000000000000000000001E003F2F
:1054200000738061807F807F00608071003F001E7C
:105430000000000000000000C007C00F000C000CBE
:10544000807F807F000C000C000C000C000C000C16
:10545000000C000C00000000000000000000000034
:105460000000801D803F8073806180618061806169
:105470008073803F801D80018063007F003E0000BC
:105480000060006000600060006F807F807180615C
:1054900080618061806180618061806100000000C6
:1054A000000000000006000600000000003E003E74
:1054B00000060006000600060006000600060006BC
:1054C0000000000000000006000600000000003E92
:1054D000003E000600060006000600060006000664
:1054E000000600060046007E003C000000600060F0
:1054F00000600060806100630066006C007C0076E4
:10550000006300638061C0600000000000000000D4
:10551000003E003E000600060006000600060006EB
:105520000006000600060006000600060000000057
:1055300000000000000000000000000080DDC0FF4F
:10554000C0CEC0CCC0CCC0CCC0CCC0CCC0CCC0CCF9
:10555000000000000000000000000000000000004B
:10556000006F807F80718061806180618061806177
:105570008061806100000000000000000000000069
:1055800000000000001E003F807380618061806128
:1055900080618073003F001E0000000000000000DA
:1055A000000000000000006E007F80738061806159
:1055B000806180618073007F006E00600060006029
:1055C00000600000000000000000801D803F80732C
:1055D00080618061806180618073803F801D800177
:1055E0008001800180010000000000000000000038
:1055F0000067803F0039003000300030003000305C
:10560000003000300000000000000000000000003A
:1056100000000000001E803F80610060007F803F2E
:1056200080018061007F001E00000000000000007B
:105630000000000800180018007F007F0018001804
:105640000018001800180018801F800F00000000CC
:105650000000000000000000000000008061806188
:10566000806180618061806180618063807F803D36
:10567000000000000000000000000000000000002A
:10568000C060803180318031001B001B001B000E88
:10569000000E0006000000000000000000000000F6
:1056A0000000000080DD80DD80DD005500550055E4
:1056B00000770077002200220000000000000000B8
:1056C0000000000000000000806100330033001E75
:1056D000000C000C001E003300338061000000004D
:1056E0000000000000000000000080618061803147
:1056F00000330033001B001B001B000E000E000EC9
:10570000001C007C00700000000000000000000091
:10571000C07FC07F800100030006000C001800302D
:10572000C07FC07F000000000000800380070006EB
:105730000006000600060006000E001C001C000EFD
:10574000000600060006000600068007800300062B
:105750000006000600060006000600060006000619
:105760000006000600060006000600060006000609
:1057700000060038003C000C000C000C000C000C73
:10578000000E00070007000E000C000C000C000CBF
:10579000000C003C00380000000000000000000089
:1057A000000000008038807F0047000000000000FB
:1057B00000000000000000000000000610160B0CA6
:1057C0000D0E0F10112F38393A3B3C44454600006E
:1057D000F057000800000020F4000000E801000875
:1057E000E4580008F4000020CC0600000402000881
:1057F0000000000001020304010203040607080977
:105800000000000000000000000000000000000098
:10581000070A0000F24200080B1200005E4A00086E
:1058200000000000FFFFFFFFFFFFFFFFFFFFFFFF84
:105830000000000000000000000000000000000662
:10584000586402400000000640640240000000006E
:105850000000000000000000706002400000000036
:10586000586002400000000000000000000000003E
:10587000886002400000000010600240000000004C
:10588000000000000000000828640240000000083A
:105890001064024000000000000000000000000E44
:1058A000A06402400000000E886402400000000076
:1058B00000000000000000028864024000000002B6
:1058C000A06402400000000000000000140000007E
:1058D0000095BA0A00000000000000000102030465
:0458E00006070809A6
:04000005080001AD41
:00000001FF
