:020000040800F2
:10000000E839002095020008896400088B64000824
:100010008D6400088F6400089164000800000000EF
:1000200000000000000000000000000093640008D1
:100030009564000800000000976400089B640008B5
:10004000AF020008AF020008AF020008AF020008CC
:10005000AF020008AF020008AF020008AF020008BC
:10006000AF020008AF020008AF0200081B3700080B
:1000700021370008273700082D37000833370008DC
:10008000393700083F370008AF020008AF02000808
:10009000AF020008AF020008AF020008AF0200087C
:1000A000AF020008AF020008AF020008AF0200086C
:1000B000AF020008AF020008AF020008AF0200085C
:1000C000AF020008AF020008AF020008AF0200084C
:1000D000AF020008AF020008AF020008AF0200083C
:1000E000AF020008AF020008AF020008AF0200082C
:1000F000AF020008AF020008AF0200084537000851
:10010000AF020008AF020008AF020008AF0200080B
:10011000AF020008AF020008AF020008AF020008FB
:100120004B3700084F370008553700085B37000889
:1001300061370008AF020008AF020008AF020008F4
:10014000AF020008AF020008AF020008AF020008CB
:10015000673700086D37000873370008AF020008E2
:10016000AF020008AF020008AF020008AF020008AB
:10017000AF020008AF020008AF020008AF0200089B
:10018000AF020008AF020008AF020008AF0200088B
:10019000AF020008AF020008AF020008AF0200087B
:1001A00011130008AF0200081513000800F002F850
:1001B00000F060F80AA090E8000C82448344AAF1A1
:1001C0000107DA4501D100F055F8AFF2090EBAE89F
:1001D0000F0013F0010F18BFFB1A43F0010318477B
:1001E00048970100689701000A444FF0000C10F88E
:1001F000013B13F0070408BF10F8014B1D1108BFA5
:1002000010F8015B641E05D010F8016B641E01F844
:10021000016BF9D113F0080F1EBF10F8014BAD1C94
:100220000C1B09D16D1E58BF01F801CBFAD505E0B2
:1002300014F8016B01F8016B6D1EF9D59142D6D30C
:10024000704700000023002400250026103A28BF34
:1002500078C1FBD8520728BF30C148BF0B60704738
:100260001FB516F022FC9DE8030006F02FFD1FBD10
:1002700010B510BD06F0F4FD1146FFF7F1FF06F0D2
:10028000DFF806F012FE03B4FFF7F2FF03BC06F03E
:1002900043FE00000948804709480047FEE7FEE7A3
:1002A000FEE7FEE7FEE7FEE7FEE7FEE7FEE7FEE726
:1002B00004480549054A064B70470000636500087D
:1002C000AD010008E8330020E8390020E8350020BF
:1002D000E83500202849084328490860704730B5B0
:1002E0000F23C27801780125FAB1244A126801F17E
:1002F000E02102F4E062C2F5E062C2F30722C2F13B
:100300000404D3404278A24084781C401443220164
:1003100081F80024007800F01F018D404009800022
:1003200000F1E020C0F8005130BD01F01F00854011
:100330004809800000F1E020C0F8805130BD104A2B
:10034000114001430D48001F016070470B4A121D08
:100350000029116801D0014300E08143116070471A
:100360004FF0E0210428086903D020F00400086160
:10037000704740F00400FAE70000FA050CED00E0D9
:1003800080FFFF1FF948016841F001010160F74A51
:100390000021083211600268F54B1A400260031D0B
:1003A000F44A1A60F14BF44A84331A60F14A103A65
:1003B0001B1D1A60026822F480220260EB480C3098
:1003C0000160181D01607047E8490022891C0A700D
:1003D0000870704702460020510901290CD00229FB
:1003E0000CD0E2497431096802F01F0201239340E6
:1003F0000B4200D001207047DC49F4E7DB49703143
:10040000F1E718B500204FF4A04400903120FFF729
:10041000E1FF0099491C0091A14201D00028F5D0CC
:100420003120FFF7D7FF002800D0012018BDCF4AA8
:10043000116821F0F80141EAC00010607047CF490F
:1004400008607047C949002270310A700A7001289B
:1004500002D0042801D1052008707047C8490860FF
:10046000704741EA82115A0810B5C64B029C03EB53
:1004700002421143014341EA0460BC49091D08607E
:1004800010BDBE4908667047800140EA0160B74967
:1004900040EA0270843108607047B8498866704746
:1004A000800140EA0160B14940EA02708831086089
:1004B0007047B24908677047B049C8647047AB4B92
:1004C00008331A68084322F0EC6210431860704742
:1004D000A64B08331A68084322F07842104318608C
:1004E0007047A24A0832116821F0030101431160EC
:1004F00070479E480830006800F00C0070479B4A27
:100500000832116821F0F001014311607047974AE9
:100510000832116821F4E051014311607047934A99
:100520000832116821F4604141EAC0001060704750
:1005300070B58E4B08331968934C11F00C0104D040
:100540006610042903D0082903D004601BE006606C
:1005500019E0864A121D1168C1F38055116801F037
:100560003F0115B1B6FBF1F101E0B4FBF1F1146804
:100570001268C4F388146143C2F30142521C520052
:10058000B1FBF2F1016019680F2202EA11117F4AF2
:10059000545C0168E14041601C68072505EA942429
:1005A000145D21FA04F484601B6805EA5333D25CBD
:1005B000D140C16070BDC0F30121032908D16B4B4C
:1005C00008331968724A21F4F81102400A431A608C
:1005D000664970310A68C0F30B0002430A60704735
:1005E0006749443908607047654940390860704779
:1005F0006249C1F85C0170475C4A8C32116821F491
:100600004011014311607047584A8C32116821F43F
:100610004001014311607047544A8C321168401EFA
:1006200021F01F01014311607047504A8C3211685C
:100630006FF0FF0321F4F85103EB00200843106032
:1006400070474A4A8C32116821F4403101431160ED
:1006500070475049C1F8E0017047444A30320029E0
:10066000116801D0014300E08143116070473F4AA7
:1006700034320029116801D0014300E08143116048
:1006800070473A4A38320029116801D0014300E02E
:10069000814311607047354A40320029116801D00A
:1006A000014300E0814311607047304A4432002921
:1006B000116801D0014300E08143116070472B4A6B
:1006C00010320029116801D0014300E0814311601C
:1006D0007047264A14320029116801D0014300E016
:1006E000814311607047214A18320029116801D0F6
:1006F000014300E08143116070471C4A2032002909
:10070000116801D0014300E0814311607047174A2E
:1007100024320029116801D0014300E081431160B7
:100720007047124A50320029116801D0014300E09D
:100730008143116070470D4A54320029116801D07D
:10074000014300E0814311607047084A5832002994
:10075000116801D0014300E0814311607047034AF2
:1007600060320029116817D0014316E000380240BA
:10077000FFFFF6EA1030002400300020000047425E
:10078000800E47420000FFFF0024F400000000201C
:10079000FFFCFF0F00104742814311607047194A68
:1007A0000029116801D0014300E0814311607047C6
:1007B00014490C310128086803D020F008000860B3
:1007C000704740F00800FAE70E4A573A00291178BE
:1007D00001D0014300E08143117070470948103097
:1007E000016841F08071016070470146054A0020B0
:1007F000583A12680A4200D0012070470149563920
:100800000870704764380240D24910B5884202D15E
:1008100001214C050AE0D049884202D101218C0512
:1008200004E0CE4988420AD10121CC052046FFF7D9
:1008300064FF2046BDE810400021FFF75EBF10BDF9
:100840007FB5044680880D4620F03F066846FFF7D6
:100850006FFEC3490298B0FBF1F189B20E43A68046
:10086000228822F001022280BE4B2A689A421BD8BD
:100870005200B0FBF2F080B2042800D20420491CE0
:100880002184A083208840F00100208020884FF63A
:10089000F5310840A9886A89114301432180A8895C
:1008A0002989084320817FBDEB88A3F53F46FF3EA1
:1008B0000BD002EBC20303EB0212B0FBF2F080B2EA
:1008C00040F48040020506D007E002EB4202B0FB94
:1008D000F2F080B2F6E740F001004FF49672514317
:1008E0004FF47A72B1FBF2F140F40040C7E741F2F5
:1008F00088310160002181804BF6FF72C280018146
:1009000041814FF48041818170470029018802D0E4
:1009100041F0010101E021F001010180704700294F
:10092000818C02D021F0100101E041F0100181849E
:100930007047828C01F00F0122F00F021143818475
:1009400070470029018802D041F4807101E021F450
:100950008071018070470029018802D041F4007144
:1009600001E021F400710180704712B141F00101F2
:1009700001E001F0FE01018270470029018802D0E8
:1009800041F4806101E021F4806101807047828937
:1009900001F0FE0122F0FE0211438181704700291F
:1009A000818902D041F0010101E021F00101818142
:1009B00070470029018802D041F0400101E021F098
:1009C0004001018070470029018802D041F40041B4
:1009D00001E0C1F30E01018070470029018803D0B6
:1009E00021F080010180704741F08001FAE7B1F504
:1009F000804F818B02D021F4804101E041F480419D
:100A000081837047B1F5006F018803D021F4006144
:100A10000180704741F40061FAE7B1F5005F018899
:100A200003D021F400510180704741F40051FAE7EE
:100A30000029018802D041F0100101E021F01001ED
:100A40000180704701827047008AC0B27047002958
:100A5000018802D041F4805101E021F480510180ED
:100A60007047B1F5006F018803D021F40061018067
:100A7000704741F40061FAE70029018802D041F093
:100A8000200101E021F0200101807047008B000A65
:100A900070470029818802D041F4006101E021F40F
:100AA0000061818070470029818802D041F4805123
:100AB00001E021F480518180704708B5084400901E
:100AC000008808BD002A828801D00A4300E08A43DA
:100AD00082807047034600209A8A1B8B42EA0342B9
:100AE00022F07F42914300D101207047818A008B20
:100AF00041EA004121F07F4070470CB502460020DA
:100B000000920A0F21F07F41019202D0009A143224
:100B100002E0009A090C1832009212680A4200D0D2
:100B200001200CBDC9438182704710B503460020E7
:100B30009A884FF4E06404EA11449B8A224021F031
:100B40007F410B4202D0002A00D0012010BDC943D2
:100B5000818270470054004000580040005C004013
:100B600040420F00A0860100C14910B5884202D161
:100B70000121841424E0BF49884202D101210414D8
:100B800004E0BD4988420AD10121C4132046FFF781
:100B9000B4FD2046BDE810400021FFF7AEBDB749C7
:100BA000884202D1012144140AE0B549884202D1A9
:100BB00001210C0504E0B34988420AD101214C050A
:100BC0002046FFF7A4FD2046BDE810400021FFF7B6
:100BD0009EBD10BD30B502884C8802F441530A888E
:100BE000CD8822438C882C4322430C8922434C8994
:100BF00022438C892243CC8922431A430280828B70
:100C000022F400628283098A018230BDF0B502229B
:100C10000023858B01244FF24006354085830284F2
:100C2000868B8D68022D3DD08A8802B10224964AB7
:100C300013681B0203D5136823F400031360924A60
:100C40007C3213681268C3F388138F4FC2F30272A9
:100C50003F1F3D683F6805F03F057F0201D58B4F80
:100C600000E08B4FB7FBF5F55D43B5FBF2F2CB88A7
:100C7000B3F5007F2BD06301B2FBF3F202EB8202EB
:100C80008B685200B2FBF3F2521D92B20A23B2FB00
:100C9000F3F202F00103D21A4FF6FF74C2F34F02CF
:100CA00004EA0323941EFE2C01D302220023CC88E5
:100CB0001A43144304840A884B881A438B88898911
:100CC0000B431A43324342F400618183F0BD120AA0
:100CD000D4E70021018041808180C1800181418170
:100CE0008181C181072101827047002101804180FB
:100CF0008180C18002228260818170470029018841
:100D000002D041F0400101E021F040010180704734
:100D10000029818B02D041F4806101E021F48061DF
:100D200081837047028822F40062028002880A43AD
:100D300002807047B1F5804F018803D021F48041D3
:100D40000180704741F48041FAE7A1F57E420188B5
:100D5000FF3A02D041F4807101E021F480710180FA
:100D600070470029818802D041F0040101E021F0A0
:100D70000401818070470029818802D041F0100170
:100D800001E021F010018180704730B5828B002393
:100D90004FF240042240828302220284848B0A881C
:100DA0004FF48075B2F5007F00D002B92B464A8817
:100DB0008D8889892A4319430A43224342F40061FA
:100DC000818330BD80897047818170470029018807
:100DD00002D041F4005101E021F40051018070473C
:100DE000018841F4805101807047012901D0008BB6
:100DF0007047808A7047008A7047002A828801D035
:100E00000A4300E08A4382807047090901238B402E
:100E1000002A828899B201D00A4300E08A43828086
:100E200070470246002012890A4200D00120704714
:100E3000C9430181704730B501F00F030125024617
:100E400005FA03F40020A3B2090905FA01F4918818
:100E5000A4B2128921401A4202D0002900D00120F8
:100E600030BD01F00F0201219140C943018170475B
:100E70000030014000380040003C00400034014098
:100E800000500140005401400838024000127A002E
:100E90000024F40010B501210C022046FFF737FCB6
:100EA0002046BDE810400021FFF731BC30B5426854
:100EB000C84B0C791A400B6842EA04221343436082
:100EC0008268C54B4D791A40D1E9034323438C68AE
:100ED00044EA4504234313438360C26A097D22F434
:100EE0007002491EC9B242EA0151C16230BD0021FF
:100EF0000160017141718160C16001610121017571
:100F00007047B64B10B5D3F80423B5490A40D0E971
:100F100000142143D0E90240044321431143C3F8A4
:100F2000041310BD0021016041608160C160704701
:100F30000029816802D041F0010101E021F00101A6
:100F4000816070474268A74B1A400A43426070476D
:100F5000416282627047426822F01F020A43426087
:100F600070479E490028D1F8040302D040F40000E5
:100F700001E020F40000C1F80403704797490028FD
:100F8000D1F8040302D040F4800001E020F4800096
:100F9000C1F80403704770B5072609290AD9C56846
:100FA000A1F10A0404EB4404A640B543A3401D4349
:100FB000C56007E0056901EB4104A640B543A340C5
:100FC0001D4305611F23072A09D2446B521E02EB01
:100FD000820293409C4391400C43446370BD0D2AB0
:100FE00009D2046BD21F02EB820293409C439140D2
:100FF0000C43046370BDC46A0D3A02EB8202934055
:101000009C4391400C43C46270BD816841F08041B3
:1010100081607047014600208968490000D50120A1
:1010200070470029816802D041F4806101E021F419
:101030008061816070470029816802D041F002011F
:1010400001E021F00201816070474268491E22F4EC
:10105000604242EA4131416070470029416802D054
:1010600041F4006101E021F4006141607047C06C0F
:1010700080B270475948D0F808037047002981684A
:1010800002D041F4807101E021F4807181607047E9
:101090000029816802D041F4007101E021F400715F
:1010A000816070474D490028D1F8040302D040F414
:1010B000005001E020F40050C1F80403704770B5FF
:1010C000072609290AD9C568A1F10A0404EB4404DA
:1010D000A640B543A3401D43C56007E0056901EB89
:1010E0004104A640B543A3401D430561836BC3F390
:1010F0000154121B921C02EB82021F249440A34352
:1011000091400B43836370BD826B491E22F44012F1
:1011100042EA01518163704708B5084400900260BB
:1011200008BD826822F470220A4382607047826898
:1011300022F440120A4382607047816841F48001C2
:1011400081607047014600208968490200D501206E
:1011500070470029416802D041F4806101E021F428
:101160008061416070470029416802D041F480519C
:1011700001E021F480514160704708B508442830EF
:101180000090006880B208BD01238B4041680AB11D
:10119000194300E0994341607047024600201268FD
:1011A0000A4200D001207047C9430160704730B542
:1011B0000246002053680C0A01258D4011682B401F
:1011C000214202D0002B00D0012030BD6FEA112156
:1011D00001607047FFFEFFFCFDF7FFC000200140EB
:1011E000E030FCFFFFFD3FFF10B501210803FFF7D2
:1011F00034FA01F009F904F034FC01F09EF90228F8
:1012000001D0022010BD07F05FFD08B1032010BD22
:10121000414901208871002010BD10B5002004F064
:10122000B2FCFF2004F0B2FC04F096F93A49012028
:101230000839087010BD10B5002004F0A7FCFF208D
:1012400004F0A1FC04F075F9334900200839087056
:1012500010BD10B507F010FC2F49044608394A6844
:101260001AB1087808B104F0B5FC204610BD10B5DD
:1012700030B101280AD0022812D003280DD115E080
:10128000002008F08FFAC1B2012004E0052008F028
:1012900089FAC1B2032060F3174469B1012010BD7F
:1012A000032008F07FFAC1B20020F4E7062008F01E
:1012B00079FAC1B20220EEE71749200C88710020AC
:1012C00010BD70B5144C083C6078401CC0B2607012
:1012D000322819D3002565700F4801F025FA0E4811
:1012E0000E4902880A6042884A60007970B1002085
:1012F00008724D72A178884200D129B1A0700748C8
:1013000008F02AFC07F0B8FB002070BD0120EFE7D1
:1013100002F0E0BF02F0DABF1800002058030020FE
:10132000002070472DE9F04F97B0784C4FF6FF7AC8
:10133000CDF810A0207818B1012017B0BDE8F08FCB
:1013400000F0A8F87248016841F0010101604FF017
:1013500002080722CDE910824FF0040BCDF848B007
:10136000CDE91328CDF854801020CDF85880CDE970
:1013700007B040204FF0010909900025CDE90595FF
:101380004FF4C070CDE90A054FF40060CDE90C05BB
:1013900080000E9010A80F904E4605A800F024FC87
:1013A000CDE902650827CDE900675646CDF810A0C3
:1013B00001E0401E04902021012000F042FD10B108
:1013C00004980028F5D1684600F0C8FC5148049004
:1013D000411E049101D30846FAE7CDE90087CDF814
:1013E0000890CDE90356C84601E0401E0490202134
:1013F000012000F026FD10B104980028F5D16846C0
:1014000000F0ACFC0320CDE900070297CDE90356BC
:1014100001E0401E04902021012000F012FD10B1D7
:1014200004980028F5D1684600F098FCCDE900B793
:1014300040F23120CDF80880CDE90306474601E0AF
:10144000401E04902021012000F0FBFC10B1049804
:101450000028F5D1684600F081FC4FF42A7000F0B6
:101460009BFC049601E0401E04902021012000F026
:10147000E8FC10B104980028F5D14FF05040452108
:1014800000F8501F0078452802D02570002054E74E
:10149000277051E77CB5FFF743FF002835D10C25B5
:1014A000032400231A4660211B48CDE9004501F0C2
:1014B00084FF00231A4601211848CDE9004501F0B8
:1014C0007CFF00231A464CF203711548CDE9004514
:1014D00001F073FF00231A464FF683711148CDE9DE
:1014E000004501F06AFF00231A464FF63F010E48FF
:1014F000CDE9004501F061FF00231A4648F233119F
:101500000A48CDE9004501F058FF7CBD20000020CD
:1015100038380240F0FE0F0100040240000802408B
:10152000000C02400010024000140240001802406B
:1015300010B50121CC052046FFF7C1F82046BDE8D3
:1015400010400021FFF7BBB830B5A34B0024196849
:10155000A24A114019601968026811431960596B59
:1015600021F007015963596B42681143596341687F
:1015700041B301292DD0022930D00329C16832D0CE
:101580000A0101694469090224038568214315435E
:101590000D43996B0D439D638169D963196C6FF39A
:1015A0000D011964196CC26911431964818C5A6C5C
:1015B00002F040425A645A6C006A024342EA014215
:1015C0005A6430BDC168047D0A02018A09042406F8
:1015D000DBE7C1680A02018A0904D6E7C1684A014B
:1015E0000169C902D1E74A01016944698902E4033A
:1015F000CBE7002101604160C16081600161416110
:101600008161C1610162416270477348016841F0C4
:101610000101016070477048016841F004010160F8
:1016200070476D490028086802D040F0020001E0D0
:1016300020F002000860704770B567490268CA6010
:101640000A696FF30D020A610A6943681A430A6165
:10165000CA69634B1A40CA61848AD0E902622504D0
:10166000036946EA0216047E45EA03231E43CA695B
:1016700046EA04661643CE610A6A02F07F420A62B5
:10168000026A838C0C6A1202C56942EA03422C4347
:1016900014430C62806AC86270BD00210160416021
:1016A0008160C160016141618161C161016241622A
:1016B0008162704770B5484902684A618A696FF370
:1016C0000D028A618A6943681A438A614A6A444BF7
:1016D0001A404A62848AD0E902622504036946EA14
:1016E0000216047E45EA03231E434A6A46EA04665C
:1016F00016434E628A6A02F07F428A62026A838CD3
:101700008C6A1202C56942EA03422C4314438C627C
:10171000806A086370BD0021016041608160C16022
:10172000016141618161C161016241628162704711
:1017300029490028C86902D040F0200001E020F0CB
:101740002000C861704724490028486A02D040F050
:10175000200001E020F02000486270471E4A59B185
:10176000D16C4FF601739943D164D16C000240F003
:1017700001000143D1647047D06C20F00100D064B7
:101780007047154988647047134A0029116801D0D1
:10179000014300E08143116070470F4A0146002079
:1017A00052680A4200D0012070470B498860704798
:1017B000094B10B55C68002114EA102F00D00121FC
:1017C0001A68024202D009B1012010BD002010BDEC
:1017D0000149000A8860704700B00240FCE0FCFF4D
:1017E000C000FC008100A1F1C04140B143F2D20031
:1017F00008606FF070404860C1F8040170474FF016
:10180000204243F2DB001060F3E730B50168890045
:10181000A1F1C0410B68FE4A1340D0E901242243E4
:10182000D0E903452C43224344692243846922437F
:10183000C4692243046A2243446A2243846A2243DD
:10184000C46A2243046B2243446B22431A430A6056
:101850008168082907D101688900A1F1C0410A689F
:1018600042F040020A60416BB1F5801F15D101685A
:1018700099B14FF020414A680B6822F4700243F49A
:1018800080130B600B6843F480730B60836BE14C37
:101890001B8A04EB035313434B60816BD1E9002394
:1018A00042EA03128B688C891B0243EA04431A4301
:1018B0000B8A42EA03520B7D896942EA03620A43BA
:1018C00001688900A1F1C0414A60816AB1F5804F89
:1018D00008D000686FF070418000A0F1C040C0F8EF
:1018E000041130BD01688900A1F1C041D1F8042183
:1018F000C06BC94B1A40D0E9003443EA0413846832
:101900008589240244EA0544806923430343134341
:10191000C1F8043130BD00210222C0E900121022BA
:10192000C0E902120161C162416112028161C0E934
:1019300007125200C0E9092101634163B74981637D
:10194000C16370478000A0F1C0400029016802D047
:1019500041F0010101E0B24A11400160704710B549
:10196000182340244FF020414FF0FC32102805D0BE
:1019700041F8803F4C608A60CA6010BD0B664C66BF
:101980008A66CA6610BD30B502684FF02041102A41
:101990001BD0D1F88020A34B02EA0302D0E9013426
:1019A00043EA0403D0E9034544EA050443EA040397
:1019B000446943EA4423846943EA443343EA020323
:1019C00043F0080403D18A6E03E00A6EE3E7D1F81E
:1019D0008820C269D2E9003543EA05231589127BC4
:1019E0004FEA054545EA026243EA020301D1CA6EA5
:1019F00001E0D1F88C20006AD0E9002542EA0522F6
:101A00000589007B4FEA054545EA006042EA00028D
:101A100003D10C668B66CA6630BD41F8804F8B607F
:101A2000CA6030BD10220021C0E90021C0E90221B6
:101A3000016141618161C269FC211160C26951602B
:101A4000C2699160C269D160026A1160026A516024
:101A5000026A9160006AC16070474FF0204251B144
:101A6000102804D052F8800F40F004000AE0106EF5
:101A700040F004000AE06A49C91E102804D052F858
:101A8000800F084010607047106E08401066704765
:101A90004FF0204251B1102804D052F8800F40F08E
:101AA00040000AE0106E40F040000AE05C493F3917
:101AB000102804D052F8800F084010607047106E54
:101AC0000840106670474FF02041102802D0D1F82E
:101AD00094007047486F70474FF02040182140F83D
:101AE000A01F002141604FF0FC318160C1600161A5
:101AF000704710B54FF0204151F8A02F4A4B846831
:101B00001A4043685B0243EA4433046814432343A6
:101B100043F010020A608A68C268D2E9003443EADE
:101B200004231489127B240444EA026213438B6069
:101B3000CA680269D2E9003443EA04231489127B9B
:101B4000240444EA02621343CB600A694069D0E985
:101B5000002342EA03220389007B1B0443EA00605E
:101B600002430A6110BD0021016041608160C268CA
:101B7000FC211160C2685160C2689160C268D16086
:101B80000269116002695160026991600269D16065
:101B90004269116042695160426991604069C16067
:101BA00070474FF02041002851F8A00F02D040F0BC
:101BB000040002E01A4AD21E1040086070478000FC
:101BC000A0F1C0404FF43471C0F840116FF0704183
:101BD000C0F848114FF020410020C1F85001C1F871
:101BE0005401C1F858017047F0B50668B100A1F181
:101BF000C041D1F84011CD0BD0E901121143D0E919
:101C000003231A4311434269ED03114382690DE036
:101C10008000E7FF0000F0FF0000F0CFC06A01087D
:101C2000FEFF0F008101F0FFCD01FEFF1143C269ED
:101C3000046A1143436A2143194329434FF0204565
:101C4000F6B3D5F8406122436FF30E0633431A43CF
:101C5000C5F8402102689200A2F1C042C2F84011CA
:101C60006FF00F02130114030168160449B38900D1
:101C7000A1F1C041D1F8481101F0704C816AD1E95D
:101C8000007E02EB0E127F1E17438A6803EB0222CE
:101C900017430A8A04EB02421743D5F8482147EA62
:101CA0000C0702F07043CA68898A120306EB0151DF
:101CB000A2F580520A431A43C5F84821006801E0A2
:101CC00006E008E08000A0F1C040C0F84871F0BD17
:101CD000C5F84011C4E7D5F84811806A01F0704793
:101CE000D0E9001C02EB0C12491E1143826803EB81
:101CF00002221143924BC26803EB02321143028A63
:101D000004EB02421143828A007E06EB0252114329
:101D10001A0302EB006001433943C5F84811F0BDD6
:101D2000002202604260102140238260C0E9031358
:101D3000802343614B01C0E9063202624262826A3B
:101D40001160826A5160826A9160826AD160826A9F
:101D50001161826A5161806A81617047D0E9001225
:101D6000114382686FF01F03C06803EB421242EA1E
:101D7000402001434FF02040C0F8501170474FF011
:101D800020410028D1F8580103D000F01800800845
:101D9000704700F0060070474FF02041D1F8542101
:101DA00042EA4000C1F8540170474FF02041D1F899
:101DB000502142EA4010C1F8500170478000A0F164
:101DC000C0400029D0F8401102D041F4007102E077
:101DD00047F6FF521140C0F84011704730B54FF43C
:101DE00080752C014FF02043A2B1102804D0A842E6
:101DF00005D153F8840F06E0586E084313E0A04263
:101E000004D153F8A40F0843186030BDD3F854012F
:101E1000084313E0102804D0A84206D153F8840FD9
:101E200007E0586E8843586630BDA04203D153F88E
:101E3000A40F8843E8E7D3F854018843C3F854015A
:101E400030BD00224FF0204310280AD0B0F5807F2B
:101E500009D0B0F5805F09D0D3F85801814309D18A
:101E600007E0586EFAE7D3F88400F7E7D3F8A40048
:101E7000F4E70122104670474FF0204210280BD0A3
:101E8000B0F5807F0CD0B0F5805F0CD0D2F8540153
:101E90008843C2F854017047506E884350667047BB
:101EA00052F8840F01E052F8A40F88431060704785
:101EB00030B500231C464FF02045102815D0B0F552
:101EC000807F14D0B0F5805F14D0D5F85421D5F8B8
:101ED000584102EA010580B101280ED002EAD10082
:101EE00008B105B10123184630BD6A6EF1E7D5F897
:101EF0008420EEE7D5F8A420EBE704F00100EFE73B
:101F00004FF0204210280CD0B0F5807F0ED0B0F5F5
:101F1000805F0ED0D2F8540140F00100C2F85401A5
:101F20007047506E20EAD1005066704752F8840F17
:101F300001E052F8A40F20EAD100106070470000C1
:101F400000F0FFFF10B501218C062046FEF7DFFBF5
:101F50002046BDE810400021FEF7D9BB30B5F74A56
:101F60001368F7490B401360038A146845692C43D2
:101F700044EA03441460121D13680B401360038B82
:101F80001468C5692C4344EA03441460121D1368A5
:101F90000B401360038C1468456A2C4344EA0344E5
:101FA0001460121D13680B401360018D1368C46A1E
:101FB000234343EA01431360111D0A68E14B1A40B1
:101FC0000A60D0E900231A43D0E9023423431A43BC
:101FD0000B681A430A60416B0A02018E0B04D74951
:101FE00024310C6804F07F440C600C68806B134350
:101FF00004431C430C6030BD0021016041608160DE
:10200000C160016141618161C161016241628162BE
:10201000C1620163416381637047C8491031002880
:10202000086802D040F0010001E020F001000860E3
:102030007047C24910310028086802D040F480304F
:1020400001E020F4803008607047BC4910310A6814
:10205000BC4B1A400A600A680B68C2F30212096896
:10206000C3F30223C1F302310260C0E901317047BA
:1020700002210160416081607047B04938310860D9
:102080007047AE491C310860704770B58A88436854
:1020900003F4704343600B6843EA024343608A8958
:1020A000836803F4704383608B6843EA0243836070
:1020B000026922F0070202610A690261CA6991F8A5
:1020C000243014020A8C85691204002686618D6909
:1020D00042EA0362254315438561426922F0FF020B
:1020E00042614A694261C26940F207739A43C26120
:1020F000D1E90A231A43C261826A86620A6B82624C
:102100000A8FC36A03F0E023C3624B6B43EA0243C6
:10211000C362026B6FF30A020263C96B016370BD95
:102120000021016041608160FF22C160C0E90412AA
:102130008161C1614FF4C0620162C0E909120722E6
:10214000C0E90B2141638163C163704700290168C5
:1021500002D041F0010101E021F00101016070476E
:1021600076493C310A6800220A600A680968120C44
:1021700089B2C0E9002170470021016041607047C9
:102180006E4940310968014201D0012070470020AA
:10219000704710B592B1026842F0020202604A68CC
:1021A000C46813020A8904F07F44C460C4680968E3
:1021B00043EA02430C431C43C46003E0016821F07E
:1021C000020101605D4901201C31086010BD002141
:1021D00001604160816070470029016802D041F0D0
:1021E000100101E021F010010160544901201C316F
:1021F0000860704710B58A6814028A8913040A7847
:1022000049681C4341EA02612143016410BD002179
:10221000016041608160C160704710B5436803F49C
:1022200070434360836803F470438360434B1B1D1A
:102230001C6801EB144312FA84F20169521C5B1C06
:10224000F1B101291ED004291ED002291CD0032976
:102250001AD0072918D00121C46AC4F30C04E41E63
:10226000B4FBF1F1046B1944491EC4F30A0443EAB8
:10227000014114444160641E42EA0441816010BD82
:102280000421E9E70321E7E70221E5E7416170471F
:1022900081627047F0B503690BB3012B21D0042B89
:1022A00021D0022B1FD0032B1DD0072B1BD00123C5
:1022B0004468C4F30C0584684E19C4F30C04171960
:1022C000761E45EA064545607F1E44EA0744846061
:1022D0005943CB1C43EA0141C1620263F0BD0423B0
:1022E000E6E70323E4E70223E2E702690AB3012AEF
:1022F00021D0042A28D0022A26D0032A24D0072A53
:1023000022D00122C36A1B0CB3FBF2F3F1B1012905
:102310001ED004291ED002291CD003291AD0072957
:1023200018D001225343DA1C42EA0342C26201611F
:1023300070470422E6E70322E4E700000868014052
:1023400000F800F08F88FE0F0222DBE70422E9E7A5
:102350000322E7E70222E5E7144A0029116801D0C9
:10236000014300E081431160704701460F4A00209D
:10237000121D12680A4200D0012070470B49083133
:1023800008607047094A0021121D1268024200D0FD
:102390000121064A1268024202D009B101207047A9
:1023A00000207047014908310860704734680140D7
:1023B00070B55A484168491C4160816811B1816813
:1023C000491E8160AFF300800024554E18E006EBF3
:1023D0008405686890B1017B81B1826872B1521E38
:1023E000826069680AD14869096988476868016834
:1023F00081606868416809B900210173641CE4B216
:102400003078A042E3D870BD464801684FF47A7036
:10241000B1FBF0F0401EB0F1807F12D24FF0E0220D
:102420005061414BF02083F8140D0020906107208B
:1024300010613E48B1FBF0F13848C16001210170E4
:102440007047FEE735480078002805D04FF0E020BF
:10245000016941F00201016170474FF0E02001691C
:1024600021F00201016170472DE9F0472C4C05462F
:10247000DDF8209020781E4617468846052802D3AE
:102480000020BDE8F087182004F072FA0028F8D088
:102490000560C0E901850773C0E90469217804EB90
:1024A000810148602178491C2170EAE71C4B30B457
:1024B00000211A7806E003EB81046468844203D0AB
:1024C000491CC9B28A42F6D88A4218D003EB81006F
:1024D0004068EFF3108472B605E003EB8102491CFB
:1024E0009568C9B255601A78521E8A42F5DC19788F
:1024F000491E197004B962B630BC04F068BA30BC29
:102500007047002101737047012101737047016812
:10251000816070474160704701607047240000206F
:1025200064030020900000200FE000E0C0C62D00F2
:1025300002468221C34800F0F2BD1CB5FFF764FFDC
:10254000C04CC14A0021204600F0A3FC0223032214
:102550008221204600F05BFE052000F05CF900239C
:1025600003228221204600F052FE022000F053F99F
:102570000221009101AB00228221204600F004FEDE
:10258000BDF8040041BAA1F50062113A01D0032060
:102590001CBD022303228221204600F038FE0520C4
:1025A00000F039F9002303228221204600F02FFE9B
:1025B000022000F030F90420FFF7BAFF20F00103F9
:1025C00004228221204600F022FE0420FFF7B0FF03
:1025D00020F0020304228221204600F018FE492345
:1025E00020228221204600F012FE022000F013F982
:1025F000012321228221204600F009FE1720FFF747
:1026000097FF40F01E0317228221204600F0FFFDB5
:102610009A2341228221204600F0F9FD01234A221B
:102620008221204600F0F3FD01234B228221204627
:1026300000F0EDFD00234B228221204600F0E7FD53
:10264000012356228221204600F0E1FD0123582279
:102650008221204600F0DBFD032340228221204618
:1026600000F0D5FDFF230B228221204600F0CFFD94
:10267000022000F0D0F802201CBD70B504464F20A7
:10268000FFF756FF60F30F255020FFF751FF60F36F
:102690000705A5F5B47528B20B2190FBF1F001B246
:1026A000002901DC002104E0B1F5A07F01DB40F24C
:1026B0003F11A14201DD081B00E0601A00B20428AE
:1026C00001DD88B270BD204670BD70B504464D2056
:1026D000FFF72EFF60F30F254E20FFF729FF60F371
:1026E000070529B240F6B830814202DCA1F63C7100
:1026F00001E0A1F6D861484200B20F2190FBF1F051
:1027000001B2EF2901DDEF2102E0002900DA00210A
:10271000A14201DD081B00E0601A00B2042801DDBF
:1027200088B270BD204670BD70B5044600796071F6
:102730004020FFF7FDFE434E00064FF001050DD48B
:10274000257101234B228221304600F060FD0023D9
:102750004B228221304600F05AFD5AE0A07930B178
:10276000012811D0022818D0032821D02AE020887F
:10277000FFF7ABFFC0F1EF0020806088FFF77DFF1F
:10278000A0F23F10404206E02088FFF79EFF208025
:102790006088FFF772FF608014E06088FFF795FFA4
:1027A00060802088FFF769FFA0F23F10404208E0F8
:1027B0002088FFF78AFFC0F1EF0060802088FFF7D4
:1027C0005CFF208001234B228221304600F01FFD58
:1027D00000234B228221304600F019FDA079002110
:1027E0004FF49F7260B101280AD02088401E9042A9
:1027F0000ED2608860B1EF280AD22171002070BD2E
:102800002088401EEE2803D2608808B19042F4D997
:102810002571012070BD0D4908B50A680092EFF3DB
:10282000058242B14FF0E021002809D00A69D203A5
:10283000FAD5401EF8E70A68009BD21A8242FAD302
:1028400008BD0000005C0040A086010028000020B8
:1028500070471CB530B1032803D10521FE48FFF7AE
:10286000F7FF1CBD05210320CDE9000100231A4616
:102870004FF4E041F94800F0A0FD1CBD7CB50525F2
:10288000F74E032440B101280CD0032803D10521C1
:10289000F448FFF7DDFF7CBD00231A464FF460715A
:1028A00030460CE000231A464FF400613046CDE973
:1028B000004500F082FD0023EB481A46C021CDE917
:1028C000004500F07AFD7CBD1CB50522E74C0321D4
:1028D00040B101280CD0032803D10521E448FFF7BB
:1028E000B7FF1CBDCDE9001200231A46642105E0A4
:1028F000CDE9001200231A464FF4E041204600F0D3
:102900005CFD1CBD1CB50622032140B101280DD081
:10291000032803D10621D748FFF79AFF1CBDCDE954
:10292000001200231A463821D34806E0CDE90012F0
:1029300000231A464FF4E051D04800F03EFD1CBD84
:102940007CB50525CC4E032450B1012816D00228B1
:102950001AD0032803D10521C948FFF779FF7CBDB0
:1029600000231A464FF480613046CDE9004500F05F
:1029700024FD00231A460C21C04809E000231A4612
:102980004FF46041304603E00023BE481A460D2153
:10299000CDE9004500F011FD7CBD1CB505220321E9
:1029A00040B101280DD0032803D10521B648FFF717
:1029B0004FFF1CBDCDE9001200231A46E021B348A9
:1029C00005E0CDE9001200231A463821AA4800F09C
:1029D000F4FC1CBD2DE9FF4F85B00446DDE912BAB9
:1029E000994616466846FEF774F9A748A84F002591
:1029F000844208D1386840F4805038600698FFF768
:102A0000CCFFADF804509E48DFF884828442A8F1E0
:102A100004080AD1D8F8001041F48041C8F8001029
:102A20000698FFF78DFFADF80450924884420AD112
:102A3000D8F8001041F40041C8F800100698FFF7DC
:102A400061FFADF804508A48844208D1386840F4E8
:102A5000005038600698FFF737FFADF80450814802
:102A6000844208D1386840F4801038600698FFF737
:102A700005FFADF804507848844208D1386840F426
:102A8000001038600698FFF7E4FEADF80450ADF88A
:102A90000C90ADF800504FF40070ADF80EA0ADF8FA
:102AA00002B0ADF80A0046B10121012E08D0022083
:102AB000022E08D0032E0BD00EE0ADF8065004E035
:102AC000ADF8065006E0ADF80600ADF8085003E09A
:102AD000ADF80600ADF80810208820F040002080F6
:102AE00069462046FEF776F8208840F040002080B6
:102AF00009B0BDE8F08F2DE9FC410446624800258D
:102B00000F464FF48276844205D1CDE9006520233B
:102B10000022FFF75FFF5A48844206D1CDE90065E5
:102B2000202300223946FFF755FF5248844206D140
:102B3000CDE90065202300223946FFF74BFF4C48C2
:102B4000844206D1CDE90065202300223946FFF7F3
:102B500041FF4448844206D1CDE90065202300228C
:102B60003946FFF737FF3C48844206D1CDE900657E
:102B7000202300223946FFF72DFFBDE8FC812DE917
:102B8000FC41044640480025174688464FF48276AB
:102B9000844204D1CDE900652023FFF71BFF3848AC
:102BA000844206D1CDE9006520233A464146FFF72D
:102BB00011FF3048844206D1CDE9006520233A4612
:102BC0004146FFF707FF2A48844206D1CDE9006558
:102BD00020233A464146FFF7FDFE2248844206D1B3
:102BE000CDE9006520233A464146FFF7F3FE1A4837
:102BF0008442C2D1CDE9006520233A464146FFF721
:102C0000E9FEBAE72DE9FC470446DDE90A651E48FE
:102C10001F4690468946844205D1CDE9006513469A
:102C20003A46FFF7D7FE1648844206D1CDE9006543
:102C300043463A464946FFF7CDFE0E48844206D148
:102C4000CDE9006543463A464946FFF7C3FE0848CA
:102C5000844225D143461DE0005401400018024043
:102C60000014024000500140001C024000100240CD
:102C700000340140003C00400004024000080240D3
:102C800000380040002002400030014000000240B7
:102C900044380240CDE900653A464946FFF79AFEBE
:102CA0007748844206D1CDE9006543463A46494615
:102CB000FFF790FE7348844206D1CDE90065434694
:102CC0003A464946FFF786FEBDE8FC877FB50D0012
:102CD000044620D06846FDF72BFC6B48844208D0A0
:102CE0006A48844205D06648844202D065488442DE
:102CF00001D1039900E0029900200124421C04FA4A
:102D000002F3B1FBF3F3AB4202D8C00004B070BDD4
:102D1000D0B20828F2D33820F8E702880388C2F33B
:102D2000C02223F0400303800129018808D021F448
:102D300000610180018841F0400101801046704728
:102D400041F40061F5E730B50488640614D50489C0
:102D5000A407FCD004892406F9D400240AE00D5D00
:102D600085810589AD07FCD005892D06F9D48589B3
:102D70001555641C9C42F2D330BD10B503885B0628
:102D800013D503899B07FCD003891B06F9D40023C4
:102D900009E0CC5C84810489A407FCD00489240662
:102DA000F9D484895B1C9342F3D310BD30B50488F9
:102DB000640613D50489A407FCD004892406F9D439
:102DC000002409E082810589AD07FCD005892D0624
:102DD000F9D485890D55641C9C42F3D330BD30B5C0
:102DE0000488640616D50489A407FCD00489240647
:102DF000F9D400240CE031F8145085810589AD0721
:102E0000FCD005892D06F9D4858922F81450641C5C
:102E10009C42F0D330BD10B503885B0614D50389FE
:102E20009B07FCD003891B06F9D400230AE031F884
:102E3000134084810489A407FCD004892406F9D4B2
:102E400084895B1C9342F2D310BD30B504886406BC
:102E500014D50489A407FCD004892406F9D40024DD
:102E60000AE082810589AD07FCD005892D06F9D4D9
:102E7000858921F81450641C9C42F2D330BD0000B7
:102E80000050014000540140003001400034014036
:102E900070472DE9F04F15460446DFF8E8B30026E9
:102EA000DFF8E4C304220123F848F94F87B04FF458
:102EB00080494BF6FF7A5C452DD1DCF8008048F460
:102EC0000018CCF8008031B101290AD0022911D0B4
:102ED000032916D019E0CDE9003201231A46C0219A
:102EE00005E0CDE9003201231A464FF4407100F0AD
:102EF00064FA0AE0CDE9003201231A464FF410715A
:102F0000F5E704215846FFF7C3FF3868A84200D907
:102F10003D60386866E0DFF87CB3DFF87CE35C4551
:102F20002ED1DCF8008048F48008CCF8008031B164
:102F300001290BD0022912D0032917D01AE0CDE9BC
:102F4000003201231A464FF4406105E0CDE900321A
:102F500001231A460321D14800F02FFA0AE0CDE9F7
:102F6000003201231A4630217046F5E70421584605
:102F7000FFF78EFF7868A84200D97D60786831E05D
:102F8000C748844239D1DCF8008048F40008CCF806
:102F9000008021B1012913D003291BD01DE09B46DD
:102FA00090460123CDE900B81A461902BD4800F049
:102FB00004FA0123CDE900B81A465902BA4806E0DE
:102FC000CDE9003201231A464FF4C071704600F07B
:102FD000F4F902E00421FFF75BFFB868A84200D9CA
:102FE000BD60B868ADF80C60ADF810600290ADF847
:102FF0001490ADF81260ADF80EA0208820F001000A
:10300000208002A92046FDF71BFC208840F001002B
:10301000208007B0BDE8F08F70B50446008820F42A
:1030200080602080208840F400702080984D44F615
:1030300020602D1F9D4E286003E02A68521E2A60E2
:1030400008D031462046FDF745FD0028F5D0208AFE
:10305000C0B270BD012070BD70B50446008840F458
:10306000807020808A4D44F620662D1F2E6003E07C
:103070002868401E28602AD0A08AC007F8D01BB15B
:10308000208840F4806020805AB921F0010020821D
:103090002E6003E02868401E286018D0A08A8007B0
:1030A000F8D5012A10D141F0010020822E607F4E18
:1030B0003E3E03E02868401E286008D03146204686
:1030C000FDF708FD0028F5D0208B002070BD012001
:1030D00070BD6F4A44F62061121F116003E0116851
:1030E000491E11600BD0818A0906F8D5818A4907EB
:1030F000F5D5018841F4007101800020704701205E
:103100007047634B44F620621B1F1A60828A1206C6
:1031100003D41A680AB1521EF7E70182704770B5EE
:10312000164600230C4605461A46FFF795FF314622
:103130002846FFF7E6FF2846FFF7CBFF00230122D2
:1031400021462846FFF788FF2846BDE8704063E720
:1031500070B50546008840F4806028804C4C44F6E9
:103160002060241F514E206003E02268521E22601E
:1031700008D031462846FDF7ADFC0028F5D0288A56
:10318000C0B270BD012070BD2DE9F0411C4617464C
:103190000E46804601230022069DFFF75DFF39465B
:1031A0004046FFF7AEFF01231A4631464046FFF77F
:1031B00053FF05E0404645B1FFF7CAFF04F8010B95
:1031C0006D1EADB2F6D2BDE8F081FFF725FFF5E741
:1031D00010B5012304461A46FFF73EFF2046BDE81E
:1031E000104019E770B51C461546012306461A46DD
:1031F000FFF732FF04E0304634B1FFF7A9FF287033
:10320000641EA4B2F7D270BDFFF706FFF7E770B5F2
:103210001D461646002304461A46FFF71DFF314699
:103220002046FFF76EFF29462046FFF76AFF20463B
:10323000BDE870404DE72DE9F0411D4617460023DB
:1032400006461A46069CFFF707FF394601E015F8C7
:10325000011B3046FFF755FF641EA4B2F7D230467B
:10326000BDE8F04135E770B51546002304461A461F
:10327000FFF7F2FE29462046FFF743FF2046BDE850
:10328000704026E7005400404038024000040240ED
:103290004000002000580040001C02400014024082
:1032A000005C0040000002400008024040000300B3
:1032B00070B51C461546002306461A46FFF7CCFE9D
:1032C00004E015F8011B3046FFF71BFF641EA4B293
:1032D000F7D23046BDE87040FBE670B500240546E5
:1032E00001232246FFF7B8FE00B901242846FFF764
:1032F000F0FE204670BD0000A3490844C0F38F20B3
:1033000070472DE9F04F9A46DDE909B88946034632
:10331000FFF7F2FFC5B200204FF0030E01218140FC
:1033200011EA090F28D0994E36F815400C4326F8BB
:103330001540DF6844000EFA04F6B7430BFA04FCAC
:1033400047EA0C07DF601F6802FA04FCB74347EA4C
:103350000C071F60012A01D0022A0DD15F6889B2D3
:103360008F430AFA00F189B20F435F60996808FA47
:1033700004F4B14321439960401CC0B21028CDD35E
:10338000BDE8F08F00B5FFF7B7FF0121814080480D
:1033900002681143016000BDFCB51646DDE907C5B2
:1033A0000C00074608D0FFF7EDFFCDE900C5324617
:1033B00021463846FFF7A5FFFCBD2DE9FC4F994695
:1033C000DDE90BB792460D00064622D0FFF7DAFF83
:1033D000002201214FF00F0C01FA02F028420DD01B
:1033E000D00806EB8003186A5407E40E0CFA04F8C0
:1033F00020EA080007FA04F420431862521C102A3D
:10340000EAD3CDE9009B5346022229463046FFF716
:1034100078FFBDE8FC8FF0B50E460546FFF76CFF60
:1034200000225A49C4B24FF0010C03270CFA02F3F0
:1034300033420CD028684FEA420E07FA0EFE40EAEB
:103440000E00286031F81400984321F81400521C33
:10345000D2B2102AEAD3F0BDF0B50022012503262E
:1034600005FA02F30B4205D00468570006FA07F389
:103470009C430460521CD2B2102AF1D3F0BDF0B5C7
:1034800000220127032607FA02F33C460B4208D02C
:103490000568530006FA03FC25EA0C059C40254309
:1034A0000560521CD2B2102AEDD3F0BDF0B5002257
:1034B0000125032605FA02F30B4205D004685700E4
:1034C00006FA07F31C430460521CD2B2102AF1D34F
:1034D000F0BDF0B5002201260324022706FA02F30C
:1034E0000B4209D00568530004FA03FC25EA0C05D9
:1034F00007FA03F31D430560521CD2B2102AEDD324
:10350000F0BDF0B500230127032507FA03F40C42B0
:1035100009D0C6685C0005FA04FC26EA0C0602FA2B
:1035200004F42643C6605B1CDBB2102BEDD3F0BD68
:1035300041F48032C261C161C261C169C069704732
:10354000002102E0491C89B240080128FAD8084647
:10355000704700B5FFF7D0FE012181400C4802689A
:103560008A43026000BD00B5FFF7C6FE074931F887
:10357000100000BD00B5FFF7BFFE044931F8100090
:10358000C04380B200BD00000000FEBF7C030020ED
:1035900030380240784A10B51823904202D2774A58
:1035A000774C03E0744A744C083A64422044B0FB00
:1035B000F3F0042801D3001F121D724B01F03D01EE
:1035C000185C8140116010BD3D21E3E76A49182273
:1035D000884203D269496A4B083903E06649664B61
:1035E00010395B421844B0FBF2F0042801D3001FED
:1035F000091D0968634A105CC14001F03D00704735
:1036000038B504463D21FFF7C5FF5E4A5A4B1820E6
:10361000121D01219C4207D2594B8DF80110234401
:10362000B3FBF0F0125C08E0534B8DF801105B42E5
:103630002344B3FBF0F00244127A8DF800208DF899
:1036400003108DF802006846FCF749FE206840F040
:103650001E002060606940F08000606138BD10B5D8
:1036600004463D21FFF796FF4648434A1821001DB6
:10367000944201D2424A01E03F4A52422244B2FB04
:10368000F1F14056012100F01F02914040098000F5
:1036900000F1E020C0F88011206820F01E002060BA
:1036A000606900F08000606110BD7047704770472E
:1036B0007047704770B505463D21FFF787FF84B21C
:1036C0003D212846FFF766FFA00605D52868C006FD
:1036D00002D52846FFF7E9FFE00605D52868000770
:1036E00002D52846FFF7E2FF200705D528684007E6
:1036F00002D52846FFF7DBFF600705D5286880075D
:1037000002D52846FFF7D4FFE00705D06869000618
:1037100002D52846FFF7CDFF70BD18480830C9E72D
:1037200016482030C6E715483830C3E713485030F4
:10373000C0E712486830BDE710488030BAE70F484C
:103740009830B7E70D48B030B4E70B48B2E70A4805
:103750001830AFE708483030ACE707484830A9E7F1
:1037600005486030A6E704487830A3E70248903067
:10377000A0E70148A8309DE71064024008600240BD
:10378000F09FFDBF3878010810B58AB004460020CC
:1037900001218DF81410C34A8DF80500C249049028
:1037A000039002908DF80400944203D10A6842F419
:1037B00080720CE0BD4A944203D10A6842F4007260
:1037C00005E0BB4A944204D10A6842F480620A6070
:1037D0000090089006904FF4803007904FF44070AE
:1037E000099006A8FDF78DFB69462046FDF75EFBB4
:1037F000A06840F00100A0600AB010BD1CB5012314
:103800000222CDE9002300230322FFF7C5FD1CBDE2
:10381000A449884202D0A549884202D12021A54866
:1038200004E0A349884202D12021A348E6E770477B
:1038300010B504469B48844202D09C48844203D180
:1038400010219C48FFF7DAFF9948844204D1BDE873
:10385000104010219848D1E710BD08219548CDE7C8
:1038600004219448CAE702219248C7E70121914800
:10387000C4E710B504468B48844202D08B4884428A
:1038800003D102218D48FFF7B9FF8948844204D152
:10389000BDE8104008218848B0E710BD10B50446C7
:1038A0008048844202D08148844203D10121834868
:1038B000FFF7A4FF7E48844204D10115BDE8104003
:1038C0007D489BE710BD10B504467648844202D07F
:1038D0007648844203D180217948FFF78FFF7448EE
:1038E000844204D14115BDE81040734886E710BDFD
:1038F00010B504466B48844202D06C48844203D120
:1039000040216F48FFF77AFF6948844204D181154E
:10391000BDE81040684871E710BD10B50446614825
:10392000844202D06148844203D120216448FFF7D9
:1039300065FF5F48844204D1BDE8104080215E48A5
:103940005CE710BD10B504465648844202D0574883
:10395000844203D110215A48FFF750FF5448844253
:1039600004D1BDE810404021534847E710BD08216D
:10397000534843E70421524840E7022150483DE7BD
:1039800001214F483AE710B504464D48F9B10129E5
:103990001FD002291FD003291FD0042921D00529B7
:1039A00023D0062925D0072927D0082929D009297D
:1039B0002BD040480A290AD00B290AD00C290AD05A
:1039C0000D290AD00E2924D00F2926D028E0012164
:1039D00004E0022102E0042100E00821FFF70EFFCD
:1039E0001EE02046FFF7AEFF1AE02046FFF795FFE6
:1039F00016E02046FFF77CFF12E02046FFF763FF4A
:103A00000EE02046FFF74AFF0AE02046FFF731FFAD
:103A100006E02046FFF70CFF02E02046FFF7F8FE25
:103A20002046BDE81040AFE670B50123054640F6DC
:103A3000FF741A46FDF7AFFAA86840F08040A8600E
:103A400002E02046641E04D328688007F9D5E86C9C
:103A500080B270BD1348D0F8041341F48001C0F85F
:103A6000041370470F48D0F8041321F48001C0F804
:103A70000413704710B50446052301221221FDF7F7
:103A80008AFAA06840F08040A06020688007FCD5DA
:103A9000E06C43F29031484340F6FF71B0FBF1F027
:103AA00080B210BD00200140443802400021014096
:103AB00000220140000802400014024000040240BD
:103AC000000002404FF400210E4804F07DBA0E4879
:103AD000006870470C4908B50A680092EFF3058248
:103AE00042B14FF0E021002809D00A69D203FAD58B
:103AF000401EF8E70A68009BD21A8242FAD308BD3A
:103B000070477047000008D028000020F0B5FA4C3C
:103B10000125059E2560F94C4FF481372760E06050
:103B2000E163002020612064E261636305EB0640ED
:103B30006064206840F0010020602068C007FCD16C
:103B4000F0BD70B5EC4C01234FF07F45236008C8F1
:103B500003F47F44DEB244EA0644C3F30746344329
:103B600025EA03031C4310C1521EF0D170BD38B5C5
:103B70000024009400F01DFD38BD38B50D4600242A
:103B800001462846009400F026FD38BD38B50024D3
:103B9000009400F00EFD38BD38B50D4600240146F6
:103BA0002846009400F017FD38BD38B50224009473
:103BB00000F0FFFC38BD38B50D460224014628460A
:103BC000009400F008FD38BD38B50324009400F0DF
:103BD000F0FC38BD38B50D46032401462846009454
:103BE00000F0F9FC38BD38B50424009400F0E1FC85
:103BF00038BD38B50D46042401462846009400F02F
:103C0000EAFC38BDBC4A0121116020B9BC48BD495D
:103C10000068884201D100207047BB49884201D129
:103C200001207047B949884201D102207047B84944
:103C3000884201D103207047B649884201D104204F
:103C40007047B549884201D105207047B349884281
:103C500001D106207047B249884201D10720704740
:103C6000FEE71EB5A44C01232360FF23B3EB116FC5
:103C700028D080F07F40009081F07F4001909F48E5
:103C8000A8490160C0F80CD001A9416102A9C16333
:103C90004FF4803141EA0261C161C2F1FF010906BE
:103CA0004162002141634FF001114164016841F01C
:103CB0000101016000E030BF0168C907FBD1029833
:103CC00080F07F401EBD2DE9F0418B4E012504465A
:103CD0003560C8880F46082808D12521104607F00E
:103CE00049F918B1F86808B1007920B12046BDE85B
:103CF000F04107F0B6B98C492268A068FFF721FFB0
:103D00007E482178884A3560C262491EC9B205EBF7
:103D10000121C161C16941F02001C1611046BDE8C6
:103D2000F08170B51C46034673480E4601210160C0
:103D3000154622467D49184600F061FC22467C4922
:103D4000304600F05CFC2346774A7949774800F01A
:103D500061FC22462946BDE87040734800F04FBC24
:103D60002DE9FF5FDFF890B14FF0010A109C164675
:103D70000F4680460025CBF800A040E022466B4964
:103D8000404600F03CFC22466949384600F037FCCA
:103D90005A481299654B664ADFF88C91DFF884C166
:103DA000CBF800A0C0F800C0C3604261C0F83C90EE
:103DB0004FF4803242EA0162C261C1F1FF0109069B
:103DC0004162002141630AEB04414164016841F012
:103DD000010101600168C907FCD122463146524801
:103DE00000F00DFC039821180E9808EB8108204480
:103DF00007EB80070F986D1C204406EB8006119896
:103E00008542BBD3BDE8FF9F2DE9F0410E463A49FC
:103E10000446012008601546204607F013F90746BE
:103E2000204607F01BF936492B1D383105EB000CF5
:103E300051F8240006F11E023744456805F4704528
:103E400045601D3742EA074051F82420506051F880
:103E50002400826802F47042826051F824100CF150
:103E6000030C43EA0C408860BDE8F0410220FEF7F5
:103E700008B9F0B4204C0123214E23600B061C0A24
:103E80003836C1F30723C1F3074556F820100F6CED
:103E900000270F6444EA032456F820002C4344EA28
:103EA00002640464F0BC0120FEF7EBB82DE9F04792
:103EB0000E4608A9154691E880030F4A01211C46C9
:103EC0001160FFF79FFE0D494FF400720A60CE604B
:103ED000CD63C1F81080C1F84090C861384664F3E2
:103EE0001F404864086840F0010008600868C00787
:103EF000FCD1BDE8F08700001400002000B00240B3
:103F00004C000020CC78010838790108207901089C
:103F10009C780108B47801086C780108547801088D
:103F2000847801080002020094030020941200200B
:103F3000942100202DE9F04391B0044640216846C9
:103F400002F07DFEDFF800940126022CC9F8006023
:103F50007ED2FE4D286AC8B9012108462E62FEF7BE
:103F6000FBF90021582000F014FB582000F006FB5C
:103F700001214802FDF708FC00215A2000F009FB4E
:103F80005A2000F0FBFAF24902208860204607F030
:103F900059F86860204607F061F81E21A86000917A
:103FA0006968C01C1D3101910421CDE90210204631
:103FB000FFF728FEA8610490FF204FF00008CDE92C
:103FC0000508CDF81C80CDF82080CDF824806F68DE
:103FD0002046C9F8006006F0B9FF7843C01DC1173C
:103FE00000EB5170C0104FF4C061E8600A910721E6
:103FF0000B91C11CCDE90D10A8680F90D548D34E88
:10400000694650F8240038360C9056F82400FEF724
:104010003CF8204606F09AFF2861082805DC56F88F
:104020002400012100F014FB1DE0C848CA4950F8E3
:104030002400884217D156F82400012100F008FB23
:10404000C64F4046C5F8148079688847E86100E0AB
:1040500011E0014620466A69FFF70BFF6869401CC2
:104060006861FF28F0DD56F824000121FEF76EF8A4
:104070000120FEF706F811B0BDE8F083FEB50E464C
:10408000B1490446012008601546204600F0EDFACB
:10409000B049AE4B51F82420303300FB062100FB21
:1040A0000522002053F82430CDE900300290A748C3
:1040B0002C3050F824302046FFF7F8FEFEBD2DE9E5
:1040C000FE4F0F46DDE90C959F4904460120DDF8BF
:1040D00038A008601E469046204600F0C6FA9D496A
:1040E00051F824209949283151F8241000FB01226D
:1040F000964896492C30343150F8240051F8243039
:1041000008FB007709FB006607FB032106FB03227F
:104110000026401BCDF800A0CDE901062B46204625
:10412000FFF7C4FEBDE8FE8F2DE9F05FDFF818A2AF
:10413000DDE90A6B4FF001091D4690460F46044623
:10414000CAF8009004F068FD012832D0ED1BA6EB00
:10415000080620466D1C761C00F087FA7B4A7D49D4
:10416000283251F8241052F8242000FB021277481C
:104170002C3050F82410083008FB017350F824004C
:10418000D84603FB002720464C1BCAF80090FFF7D7
:1041900039FD6F49724A0A60C1F83880CF630C64F8
:1041A000486365F31F464E64086840F001000860EC
:1041B00012E000221921204607F066F933462A460C
:1041C0004146384606F096FE2046BDE8F05F654A57
:1041D000192107F059B930BF0868C007FBD1BDE805
:1041E000F09F2DE9FE430F46DDE90A585649044683
:1041F0000120086099461646204600F036FA534AD8
:1042000054492832514B51F8241052F824203433A9
:1042100000FB02114D4853F824302C3050F8240094
:10422000CDF8008006FB007202FB0312C5F1F0011D
:10423000401BCDE901102B4649462046FFF736FECC
:10424000BDE8FE832DE9F05F0E460AA9994691E884
:10425000100C1546074600F008FA3C4A3D49283242
:104260003A4B51F8271052F82720343300FB021143
:10427000364853F827302C3050F8270005FB0062F1
:1042800002FB0318051BABEB04063846FFF7BAFC2C
:10429000DFF8B4C00121CCF800102D494FF4813C67
:1042A000C1F800C0C1F80C90C1F83C800E610D64EB
:1042B0000522CA6148634AEA04404864086840F03D
:1042C000010008600868C007FCD188E72049022087
:1042D0008860704770B52449012008601B4D002498
:1042E000243555F82400002842DB1849174A2C31A0
:1042F000303251F8241052F824205143134A3432FA
:1043000052F824205043134A52F8242001FB002184
:104310000E4A383252F82400836A0023836252F82E
:10432000240081620120FDF7ACFE55F824102046E0
:1043300005F0C8F8054955F82400283141F8240053
:104340004FF0FF3012E00000140000204C0000206D
:1043500000B002404C780108847801086C780108AC
:1043600000020300294100083C68014045F8240090
:10437000641C012CB5DB70BD2DE9FC411546C34F13
:10438000044600260122C24B07F10C000F2971D20E
:10439000DFE801F07F087F0C2329813C382D4F7F17
:1043A0005D711D002046FFF7C5FD74E057F824201D
:1043B0006968B84B5143B54A53F82430083250F875
:1043C000240052F8242001FB023181625FE0AF49F2
:1043D0002868083941F824005DE02A7920462968D8
:1043E000FFF747FD57E00120FDF717FE53E029686E
:1043F00001B1012150F82400FDF7A8FE0120FDF7CE
:1044000040FE48E0D5E9001220460FE06A4601A9C7
:10441000204604F011FC9D49286847F82400091D36
:10442000686841F82400DDE900212046FFF7ECFC34
:1044300031E02D681A6050F824104A6922F0FF021A
:104440004A6150F82400C5F1FF014161D6E750F8F8
:104450002400296801B101211A600029016802D0F5
:1044600041F0020101E021F0020101608A490220CD
:10447000086010E00DE0296850F82400C1F30742FD
:1044800001F47F431A43C9B242EA0141C1600220EC
:10449000B5E74FF0FF363046BDE8FC812DE9F0412D
:1044A00000231A467D497E4804F072F84FF4A07448
:1044B0002246F021002007F02FF82246F0210020AC
:1044C00007F054F80024714E651E083E714F06F146
:1044D000100846F8245057F82410204607F032F808
:1044E000204606F033FDC11048F824106D4A212102
:1044F000204606F0C9FF6C4A2321204606F0C4FF7F
:104500002046FFF77FFB042809D8684A1921204676
:1045100006F0BAFF664A2521204606F0B5FF204680
:10452000FFF770FB022804D1624A2421204606F0DE
:10453000ABFF6149614803F091FB6149614803F0B9
:1045400099FB6149614803F08FFB6149614803F0C1
:104550009DFB6149614803F093FB614805F0E4F875
:10456000604805F0E7F8604805F0EAF85F4805F0B4
:10457000EDF8641C012CACDBBDE8F08100F01F02FB
:10458000012191404009800000F1E020C0F80011B5
:1045900070470907090E002806DA00F00F0000F145
:1045A000E02080F8141D704700F1E02080F800142E
:1045B0007047F8B50F4636490125069E0D60144632
:1045C0004B49FFF7BEFA334600223946484800946B
:1045D000FFF79CFAF8BDF8B50D462D4914460122A7
:1045E000069E0A600023324641490094FFF78EFA86
:1045F00022462946BDE8F8403D48FFF7A2BA10B56B
:10460000234C0123236008C8521E83F07F4308C156
:10461000F9D110BD70B51E4C0125364E2560364CC3
:104620002660E0606161E26300202061A061206497
:10463000E0616062606305EB03406064206840F005
:104640000100206000E030BF2068C007FBD170BDD2
:104650000029016802D041F0100101E021F01001B1
:1046600001600D49022008607047094A012111606C
:10467000064A0649121D51F8201052F820205143D5
:10468000024A083252F82000484370477800002060
:10469000140000204C7801082468014020790108AA
:1046A0005C7901087D400008BF40000829410008EE
:1046B00045420008E3410008D53B0008C93B00081B
:1046C000B73B0008AB3B0008F33B0008E73B0008A2
:1046D000993B00088D3B00087B3B00086F3B0008BE
:1046E000233D0008C73C0008633C0008613D00080A
:1046F000940300200002020000B0024070B5FE4C9E
:104700002068C007FCD10225A560FC48016841F47F
:1047100000010160016821F400010160F848FCF724
:1047200013FF206840F0010020602068C007FCD122
:10473000A56070BD30B5F24C2834A56824692C44BE
:104740000444EF4884611C3080E80E0030BD2DE940
:10475000F041EB4F044628371546387E0E460128B7
:104760006DD1B888A0426ADDF888B04267DD002DBF
:1047700065D0002C02DA101985B20024002E00DA70
:104780000026B9886019884202DBB888001B85B210
:10479000DB48022141604FF440310160002141615A
:1047A00003F01F018160C3F34511C160C3F3C4214D
:1047B0000161787E01280AD1B87E398806FB014163
:1047C000484339882B46491B0122FFF7B3FF787E07
:1047D00080B9398878883A88801B401E00FB021017
:1047E000001BB97E401B484339882B46491B0122D8
:1047F000FFF7A0FF787E03280DD138883988801B09
:10480000401E01FB0400B97E4843398801232A4633
:10481000491EFFF78FFF787E02280DD138887988EE
:10482000491B091B00FB0160B97E484339880123FD
:104830002A46491EFFF77EFFBDE8F0415EE7BDE86E
:10484000F081AF4810B528304FF05041816000230F
:104850000361F02202804FF4A07141804FF496343E
:104860004461C2808180437602218176817E6143EA
:10487000C160A24920310A6842F400020A600121A5
:10488000017610BD9E492831CA68401E42430A6124
:10489000704770B59A4B28335C7E92B2012C14D0CD
:1048A0005C7EE4B15C7E032C29D05C7E022C0BD1B3
:1048B0009C681D692C445D88281A1D88401E00FBD9
:1048C0000510997E4843225270BD9C681D6925449D
:1048D0009C7E1B8801FB030044432A5370BD9C68E7
:1048E0001D6925441C88241A5888401A1988401EBE
:1048F000641E00FB0140997E48432A5270BD9C68AB
:104900001D692C441D881E8800FB0650401A997EA4
:10491000401ED7E77A4A30B52832537E012B09D0A2
:10492000537E8BB1537E032B1BD0537E022B23D09F
:10493000002030BD936814691C44937E128801FBEB
:1049400002004343E05A30BD93681469234414883D
:10495000201A5488611A1488401E491E01FB040065
:1049600013E09368146923441488158800FB0540FC
:10497000401A917E401E09E09368146923445488CC
:10498000201A1488401E00FB0410917E4843185AD8
:1049900030BD03280AD85A49283148764FF4A0720E
:1049A000F02320B1012802D0CB808A807047CA80D2
:1049B0008B807047524902224A604FF440320A60AD
:1049C0000F224A6100F01F028A60C0F34512C0F353
:1049D000C420C1E9032001F12800826803691A4458
:1049E0008A610022CA6142880A620088486285E6BC
:1049F0002DE9F041DFF808C10C460CF1280C054602
:104A00009CF8180006991E46174601287AD1BCF872
:104A10000400A84276D9BCF80600A04272D9BCF8BE
:104A20000620A019904203D3BCF80600001B86B2F2
:104A3000BCF80420E819904203D3BCF80400401BE2
:104A400087B22F48022242604FF4403202600F22A8
:104A5000426101F01F028260C1F34512C1F3C4211B
:104A6000C0E903219CF8190001280DD19CF81A0017
:104A7000BCF8001004FB01514843BCF800103B4651
:104A8000C91B3246FFF756FE9CF81900A8B9BCF8BE
:104A90000000BCF80210BCF80020891B091B01FBB8
:104AA0000200401B9CF81A10C01B4843BCF80010C1
:104AB0003B46C91B3246FFF73DFE9CF81900032810
:104AC00011D1BCF80000BCF80010001B801B01FBDA
:104AD00005009CF81A104843BCF800103346891BA7
:104AE0003A46FFF727FE9CF81900022819D1BCF8B6
:104AF0000000BCF8021006E000B00240103802408E
:104B00009430002010E0C91B491B00FB01409CF8B9
:104B10001A104843BCF800103346891B3A46FFF789
:104B200009FEBDE8F041E9E589E62DE9F0411546C9
:104B30000C460646FE4F387E01286CD1B888B0423C
:104B400069DDF888A04266DD002D64D0002E00DA11
:104B50000026002C00DA0024F9886019884202DB64
:104B6000F888001B85B2F2480221283841604FF4D2
:104B7000403101600F21416103F01F018160C3F3E7
:104B80004511C160C3F3C4210161787E01280AD1B7
:104B9000B87E398804FB01614843398801232A46DD
:104BA000491EFFF7C7FD787E80B9388879883A8832
:104BB000491B091B01FB0200B97E801B401E4843B4
:104BC000398801232A46491EFFF7B4FD787E032861
:104BD0000DD138883988001B401B01FB0600B97EC7
:104BE000484339882B46491B0122FFF7A3FD787EF5
:104BF00002280DD139887888801B401E01FB0040B7
:104C0000B97E484339882B46491B0122FFF792FDA4
:104C1000BDE8F04172E512E62DE9F04799460E46EF
:104C20000746DDF820A0904609B200B253464A4636
:104C30000D460446FFF779FF07EB0800401E00B25F
:104C400053464A462946FFF770FF534642462946D7
:104C50002046FFF77CFD06EB090001B253464246B1
:104C60002046BDE8F04772E52DE9F04F0746C2F156
:104C700001000FFA80FCC2EBC230400098460E469D
:104C80004FF0010A0FFA80F900251446DDF824B030
:104C90005AE0BCF1000F09DB09F102000FFA80F9BC
:104CA000641E0CEB090024B20FFA80FC0AF102002A
:104CB0000FFA80FA6D1C0CEB0A000FFA80FC2DB283
:104CC0005FEAC8700DD0701B81B2381B80B25A46A3
:104CD000FFF7DFFD301B81B2781B80B25A46FFF729
:104CE000D8FD5FEA88700DD5301B81B2781980B28B
:104CF0005A46FFF7CEFD701B81B2381980B25A4672
:104D0000FFF7C7FD5FEA48700DD5301981B27819F9
:104D100080B25A46FFF7BDFD701981B2381980B2D2
:104D20005A46FFF7B6FD5FEA08700DD5301981B21B
:104D3000781B80B25A46FFF7ACFD701981B2381B60
:104D400080B25A46FFF7A5FDA542A2DBBDE8F08F71
:104D50002DE9FC5F1E46DDE90C45170088468246BA
:104D600070D0002E6ED04FF0FF30B4EB570F02D949
:104D700000EB57018CB2B4EB560F02D900EB560092
:104D800084B2B4EB570F5FD8B4EB560F5CD8002C4D
:104D90005AD0604207EB400B00900AEB040000B2CF
:104DA0001FFA8BF281462B460FFA88F1FFF7CFFCF2
:104DB00008EB06000190401E01B21FFA8BF2484634
:104DC0002B46FFF7C4FC00982B4606EB400B08EB84
:104DD000040006B21FFA8BF231460FFA8AF0FFF791
:104DE000A4FE0AEB0708A8F101001FFA8BF2314676
:104DF00000B22B46FFF799FE22B231464846012306
:104E000017460095FFF730FFA8EB0400401E0FFA8D
:104E100080F8314602233A4640460095FFF724FFCA
:104E200001980095001B401E04B2404604233A46F8
:104E30002146FFF719FF2146484608233A460095C8
:104E4000FFF712FFBDE8FC9F414650460095FFF773
:104E5000E3FEF7E72DE9FE4F0027141A002C00DCD3
:104E6000841A0FFA84F85C1A002C00DCCC1A0FFAB2
:104E700084FC06460D464FF0FF34B24203DB0120AE
:104E80000190009001E001940094AB4203DB4FF0ED
:104E9000010BDA4601E0A346DA46E0454FF0000098
:104EA00008DB8246019008EBD870C1464410CDF86B
:104EB00008C026E00090E1460CEBDC70CDF80880DD
:104EC0004FF0000B4410C8461BE0012229B230B25B
:104ED0000C9BFFF73CFC0298204404B24C4508DBD5
:104EE000A4EB090004B20198304406B205EB0B00B4
:104EF00005B200987F1C304406B205EB0A0005B2EB
:104F00003FB24745E1DDBDE8FE8F2DE9FC5F064677
:104F1000C2F101000FFA80F901200190C2EBC2300A
:104F200040009A460F46DDF830800FFA80FB01E022
:104F3000BC3000200025144671E0B9F1000F09DBF8
:104F40000BF102000FFA80FB641E09EB0B0024B288
:104F50000FFA80F96D1C01982DB2801C00B20190EF
:104F600048440FFA80F95FEACA7013D0381B01B2C7
:104F7000701B02B20B463046CDF80080FFF76AFF87
:104F8000781B01B2301B02B20B463046CDF80080D0
:104F9000FFF760FF5FEA8A7013D5381B01B2701902
:104FA00000B20B463246CDF80080FFF753FF781B66
:104FB00001B2301900B20B463246CDF80080FFF73F
:104FC00049FF5FEA4A7013D5381901B2701902B26D
:104FD0000B463046CDF80080FFF73CFF781901B250
:104FE000301900B20B463246CDF80080FFF732FF91
:104FF0005FEA0A7013D5381901B2701B00B20B4674
:105000003246CDF80080FFF725FF781901B2301B3A
:1050100002B20B463046CDF80080FFF71BFFA542D9
:105020008BDB0FE72DE9FC5F1E46DDE90C45170021
:105030008A46814669D0002E67D04FF0FF30B4EB2E
:10504000570F02D900EB57018CB2B4EB560F02D9BF
:1050500000EB560084B2B4EB570F57D8B4EB560FA1
:1050600054D8E4B3C4F1000807EB480082B209EB5E
:105070000400CDE9005080B25146FFF7B9FC06EBC1
:10508000480B0AEB04081FFA8BF31FFA88F122463B
:1050900048460095FFF7ACFC1FFA8BF309EB0700BD
:1050A000A0EB040B1FFA88F11FFA8BF02246009543
:1050B000FFF79EFC01980FFA88F100B222B28846F1
:1050C0000095814601231746FFF71FFFABF1010052
:1050D000414600B2804602233A46009500E015E0C2
:1050E000FFF713FF0AEB0600001B401E04B2404608
:1050F00004233A4621460095FFF707FF214648461C
:1051000008233A460095FFF700FF9BE651464846C4
:105110000095FFF76DFC95E6F8B516460D4604467A
:105120000CE034F8020B34F8021B0096B4F902309C
:10513000B4F9002009B200B2FFF78CFE6D1E2D04F9
:105140002D0CEED1F8BD2DE9FF4F0746C2F101004D
:1051500091460FFA80F8C2EBC93040000FFA80FA8E
:1051600083B00E4601EB090001B24FF0010B14B2FF
:1051700038B200255A46069B0090FFF7D6FCA6EBF6
:10518000090001B20122069B0098FFF7CEFC07EB55
:10519000090031B200B20122069B0091FFF7C5FC65
:1051A000A7EB090000B20122069B009954E0B8F178
:1051B000000F09DB0AF102000FFA80FA641E08EB07
:1051C0000A0024B20FFA80F80BF102000FFA80FBFC
:1051D00008EB0B000FFA80F830196D1C01B22DB2EC
:1051E000781900B2019089460122069BFFF79DFCC9
:1051F000781B494600B281460122069BFFF795FCC9
:10520000301B01B200910122069B0198FFF78DFC33
:1052100048460122069B0099FFF787FC701901B2EE
:10522000381900B2019089460122069BFFF77DFCE8
:10523000381B00B2494600900122069BFFF775FC1F
:10524000701B01B289460122069B0198FFF76DFC95
:1052500049460122069B0098FFF767FCA542A6DBA2
:1052600007B073E52DE9FF4F8146C2F1010090467A
:1052700007B2C2EBC83040000FFA80FA83B00E4686
:1052800001EB080001B24FF0010B14B20FFA89F0E4
:1052900000255A46069B0090FFF747FCA6EB080046
:1052A00001B20122069B0098FFF73FFC09EB0800C2
:1052B00031B200B20122069B0091FFF736FCA9EB48
:1052C000080000B201900122069B0099FFF72DFC17
:1052D0004FF6FF7101EA4802DDE90010069B3BE052
:1052E000002F08DB0AF102000FFA80FA641E07EBB8
:1052F0000A0024B207B20BF102000FFA80FB07EBA1
:105300000B006D1C07B22DB24FF6FF7000EA45028C
:10531000301901B2A9EB050000B280460092069B4D
:10532000FFF715FA301B01B24046069B009AFFF7C3
:105330000EFA4FF6FF7000EA4402701901B2A9EBB1
:10534000040000B280460092069BFFF700FA701B33
:1053500001B24046069B009AFFF7F9F9A542BFDB70
:105360007EE72DE9F84F1BB2DDE90B54DDF828B0DC
:1053700012B209B200B29A46914688460746009496
:10538000FFF768FD2BB20FFA8BF21E461546514609
:1053900048460094FFF75EFD43463A4631462846AC
:1053A0000094FFF757FDBDE8F88F2DE9FE4F8446C6
:1053B0000027A2EB0C000C46002801DCACEB02003D
:1053C00001B2181B002800DCE01A00B20FFA8CF6BC
:1053D00025B24FF0FF38624503D301229346019274
:1053E00002E0C346CDF80480A34203D34FF0010A84
:1053F000D14601E0C246D14681424FF0000207DBB0
:105400009146019201EBD17254108846029028E037
:10541000934600EBD0724FF0000A54108046029180
:105420001FE00E9800900D98294603B20C9802B226
:105430003046FFF70FFD0298204404B2444508DBD4
:10544000A4EB080004B20198304406B205EB0A0050
:1054500005B206EB0B0006B205EB09007F1C05B296
:105460003FB24745DDDD4EE5F0B5244CDDE905767C
:105470002568ED07FCD14FF0020CC4F808C0204DA0
:10548000D5F800E04EF4000EC5F800E0D5F800E0D5
:105490002EF4000EC5F800E06D152560E060E163B4
:1054A00027612664C4F81CC062F31F43636420684C
:1054B00040F001002060F0BD3CB5DDE90545CDE9D7
:1054C0000045FFF7D1FF0D480168C907FCD1022153
:1054D00081603CBD0B4902880A8042884A8082680C
:1054E0008A60C268CA6002798A760A884B885A4301
:1054F0004A61007C4876487EFFF74BBA00B0024014
:1055000010380240BC3000200288520601D400202E
:10551000704702899207FCD002891206F9D4818172
:1055200001898907FCD001890906F9D48089C0B2B4
:105530007047FF48002181604171704730B5FC4AD7
:105540004FF41634002180B2A1F140539568891CB4
:10555000A142E852F8D330BDF5484FF416318160CE
:1055600001214171704730B591B01E20009040F28A
:105570000D1001900420029040F24310039002208D
:105580000490FF2005900020069007900890099055
:105590004FF480600A9005200B9040F2E3100D90CC
:1055A000C01E0E904FF4A0700F904FF05040E14C91
:1055B0000C9069462046FCF768FDDF490C914FF4DA
:1055C000C0610A91DB4D07210B9180356946284661
:1055D000FCF75BFD0120FCF754FD01212046FCF7A0
:1055E000B5FD01212846FCF7B1FD0120FCF749FD7E
:1055F0000120FCF71EFD0120FCF70FFDFF212046D6
:10560000FCF744FE00212846FCF740FE0120FCF791
:1056100038FD11B030BDC94800B501688FB041F008
:1056200080610160C5481438016841F400010160DF
:10563000002002900390009001900C900D900E902D
:1056400004220721C020FAF72BFF4FF48030FAF72D
:10565000F8FF0120FAF72DFF3D20FAF7BBFE0028E6
:10566000FAD009200490012005901D200690032007
:10567000079040F20D10089040F24310099040F25C
:1056800017100A9040F247100B906846FCF766FC32
:105690000FB000BDAA4B10B54FF400521A80A94AB2
:1056A000042414800146A848FFF72EFFA548801E59
:1056B000048010BD01B5009801E0401E0090002854
:1056C000FBD108BD9E4B10B59B1E4FF400521A80B3
:1056D0009C4A0424148001469B48FFF715FF994813
:1056E000801E048010BD10B5CA20FFF7D3FFC32071
:1056F000FFF7E8FF0820FFF7E5FF5020FFF7E2FF84
:10570000CF20FFF7C7FF0020FFF7DCFFC120FFF726
:10571000D9FF3020FFF7D6FFED20FFF7BBFF642055
:10572000FFF7D0FF0320FFF7CDFF1220FFF7CAFFDE
:105730008120FFF7C7FFE820FFF7ACFF8520FFF7C8
:10574000C1FF0020FFF7BEFF7820FFF7BBFFCB2093
:10575000FFF7A0FF3920FFF7B5FF2C20FFF7B2FFBE
:105760000020FFF7AFFF3420FFF7ACFF0220FFF768
:10577000A9FFF720FFF78EFF2020FFF7A3FFEA2005
:10578000FFF788FF0020FFF79DFF0020FFF79AFF3B
:10579000B120FFF77FFF0020FFF794FF1B20FFF7EA
:1057A00091FFB620FFF776FF0A20FFF78BFFA220BC
:1057B000FFF788FFC020FFF76DFF1020FFF782FF83
:1057C000C120FFF767FF1020FFF77CFFC520FFF720
:1057D00061FF4520FFF776FF1520FFF773FFC72015
:1057E000FFF758FF9020FFF76DFF3620FFF752FFBD
:1057F000C820FFF767FFF220FFF74CFF0020FFF7FC
:1058000061FFB020FFF746FFC220FFF75BFFB62025
:10581000FFF740FF0A20FFF755FFA720FFF752FFD1
:105820002720FFF74FFF0420FFF74CFF2A20FFF748
:1058300031FF0020FFF746FF0020FFF743FF002065
:10584000FFF740FFEF20FFF73DFF2B20FFF722FF80
:105850000020FFF737FF0020FFF734FF0120FFF79C
:1058600031FF3F20FFF72EFFF620FFF713FF012047
:10587000FFF728FF0020FFF725FF0620FFF722FF94
:105880002C20FFF707FF314C2046FFF713FF26209F
:10589000FFF700FF0120FFF715FFE020FFF7FAFEFA
:1058A0000F20FFF70FFF2920FFF70CFF2420FFF741
:1058B00009FF0C20FFF706FF0E20FFF703FF09206A
:1058C000FFF700FF4E20FFF7FDFE7820FFF7FAFEFE
:1058D0003C20FFF7F7FE0920FFF7F4FE1320FFF747
:1058E000F1FE0520FFF7EEFE1720FFF7EBFE11207B
:1058F000FFF7E8FE0020FFF7E5FEE120FFF7CAFE14
:105900000020FFF7DFFE1620FFF7DCFE1B20FFF76D
:10591000D9FE0420FFF7D6FE1120FFF7D3FE0720A3
:10592000FFF7D0FE3120FFF7CDFE332010E000005E
:10593000D830002084680140005802D0443802402A
:105940001A0C02401A0802400050014040420F0069
:10595000FFF7B8FE4220FFF7B5FE0520FFF7B2FEC5
:105960000C20FFF7AFFE0A20FFF7ACFE2820FFF760
:10597000A9FE2F20FFF7A6FE0F20FFF7A3FE1120A0
:10598000FFF788FE2046FFF795FE2920FFF782FEED
:10599000BDE810402C207DE62DE9FC4701240025C0
:1059A000DFF80C94CDE900542B46224661034846AB
:1059B000FDF7F2FCFF4FCDE9005400230122042142
:1059C0003846FDF7E9FC0E25032400231A4641F66C
:1059D0005801F948CDE90045FDF7EFFC0926DFF84D
:1059E000DC83CDE9004600231A4603214046FDF73B
:1059F000E4FC00231A464FF470614046CDE90045AF
:105A0000FDF7DBFC00231A464FF498613846CDE9D8
:105A10000045FDF7D2FC00231A464FF48961484641
:105A2000CDE90045FDF7C9FC00231A463915E448C5
:105A3000CDE90045FDF7C1FCCDE90045E14D00236E
:105A40001A464FF40C612846FDF7B7FCCDE9004635
:105A500000231A464FF4A0512846FDF7AEFCBDE8DE
:105A6000FC8710B5FFF798FFD24904201831088051
:105A70000021D548FDF73FF8FBF754FCFFF733FE54
:105A8000FFF7C9FDFFF76FFDD0480021F0224180EC
:105A90000180CF4802804FF4A0724280012202713F
:105AA00081734171FF22816002734173FFF741FDF1
:105AB0004FF6FF742046FFF741FDFFF74DFD2046EE
:105AC000FFF73CFDBDE8104033E510B52920FFF796
:105AD000E1FDBDE810400120FCF79FBA10B5282079
